:100000000C9442030C9486030C94A1030C94860375
:100010000C9486030C9486030C9486030C9486033C
:100020000C9486030C9486030C949B140C94860306
:100030000C9486030C9486030C9486030C9486031C
:100040000C9486030C9486030C9486030C9486030C
:100050000C9486030001010101010101010102026A
:100060000202020202020203030303030303030466
:100070000404040404040505050505060606060631
:10008000070707070708080808090909090A0A0AEB
:100090000B0B0B0C0C0C0D0D0D0E0E0E0F0F0F108D
:1000A0001011111112121313141415151616171717
:1000B000181819191A1A1B1B1C1D1D1E1E1F202083
:1000C000212222232424252626272829292A2B2CCD
:1000D0002D2D2E2F30313232333435363738393AF0
:1000E0003B3C3D3E3F404142434445464748494AE8
:1000F0004C4D4E4F50515354555658595A5B5D5EB6
:100100005F616264656668696B6C6D6F7072737550
:1001100077787A7B7D7E8082838587888A8C8E8FB4
:1001200091939596989A9C9EA0A2A3A5A7A9ABADE2
:10013000AFB1B3B5B7BABCBEC0C2C4C6C9CBCDCFD0
:10014000D1D4D6D8DBDDDFE2E4E7E9EBEEF0F3F57E
:10015000F8FAFDFFFFAA7F55402223252628292AE9
:100160002C2D2F3032333536383A3B3D3E4042431A
:100170004547494A4C4E5051535557595A5C5E6059
:1001800062646668696B6D6F71737577797B7D7F6B
:1001900081838587898A8C8E90929496989A9C9E6A
:1001A0009FA1A3A5A7A8AAACAEAFB1B3B4B6B8B986
:1001B000BBBCBEBFC1C2C3C5C6C7C9CACBCCCDCEEE
:1001C000D0D1D2D2D3D4D5D6D7D7D8D9D9DADADBD1
:1001D000DBDBDCDCDCDCDCDDDDDDDDDCDCDCDCDC5D
:1001E000DBDBDBDADAD9D9D8D7D7D6D5D4D3D2D29C
:1001F000D1D0CECDCCCBCAC9C7C6C5C3C2C1BFBE84
:10020000BCBBB9B8B6B4B3B1AFAEACAAA8A7A5A3EE
:10021000A19F9E9C9A98969492908E8C8A898785AD
:1002200083817F7D7B79777573716F6D6B6968668C
:100230006462605E5C5A5957555351504E4C4A495E
:1002400047454342403E3D3B3A3836353332302F06
:100250002D2C2A292826252322E000E200E300E1B4
:1002600000000000006200000063005800E600018A
:1002700051000049000000E1001D001B00060019AC
:1002800000050059005A005B0058003800E50000E6
:100290000001510000025104001600070009000A85
:1002A000005C005D005E0057003300340028002829
:1002B0000047002B0014001A000800150017005F0B
:1002C0000060006100570013002F00300031000073
:1002D0000035001E001F002000210022004C0054A9
:1002E000005500560027002D002E002A002A002964
:1002F0000000003A003B003C003D00000000000010
:10030000000000000042004300440045003E00237E
:10031000001C000B0011002C005000510052004F37
:10032000003F00240018000D0010004100260012BC
:10033000000F003700E7004A0000004E004B00406D
:100340000025000C000E0036000100010001000134
:100350000000000000010000000100010001000198
:100360000000000100000001000100010001000187
:100370000001000100010001000100010001000076
:100380000001000000C45CC65CC85CCA5CCC5C01B7
:100390000001000100010001000100010001000155
:1003A000000100C35CC55CC75CC95CCB5C0100019B
:1003B0000001000100010001000100010001000036
:1003C00000C25CCD5CCE5CCF5CD05CD15C01000136
:1003D0000001000100010001000100010001000016
:1003E0005C0000DE5C010001000100000000000074
:1003F000000000000001000100010001000100D226
:100400005C01000100010001000100010001000188
:10041000000100D35C0100010001000100010001A6
:1004200000010001000100010000000100010001C5
:1004300000D45C010001000100E000E200E300E103
:1004400000000000006200000063005800E60001A8
:1004500051000049000000E1001D001B00060519C5
:1004600000050059005A005B0058003800E5000004
:100470000046000000390004001600070509050ABF
:10048000005C005D005E0057003300340028002847
:100490000047002B0514001A000800150017005F24
:1004A0000060006100570013002F00300031000091
:1004B0000035001E001F002000210022004C0054C7
:1004C000005500560027002D002E002A002A002982
:1004D0000000003A003B003C003D0000000000002E
:1004E000000000000042004300440045003E00239D
:1004F000001C000B0011002C005005510552054F47
:10050000053F00240018000D0010004100260012D5
:10051000000F003700E7004A00000047004B004092
:100520000025000C050E00360032190A00047F3F3A
:100530001F643214643214783C1E1E140A0505012F
:100540000902A10185020901A10005091901290576
:10055000150025019505750181029501750381033B
:100560000501093009311581257F9502750881063D
:1005700009381581257F950175088106050C0A3813
:10058000021581257F950175088106C0C005010906
:1005900080A101850319012AB700150126B700952E
:1005A0000175108100C0050C0901A1018504190124
:1005B0002AA002150126A002950175108100C00530
:1005C000010906A101050719E029E7150025019594
:1005D0000875018102950175088103050719002935
:1005E000FF150026FF009506750881000508190112
:1005F0002905950575019102950175039103C004C4
:1006000003300000001203420075006400670065BB
:10061000007400390036000000180344006F006EBB
:1006200000750074004300610062006C0065007397
:100630000000000403090409023B00020100A0FAC3
:100640000904000001030101000921010100012248
:1006500040000705810308000109040100010300AF
:100660000000092101010001228100070583030820
:1006700000011201100100000008DCDC0200010092
:100680000102030111241FBECFE5D8E0DEBFCDBFBC
:1006900004B603FE24C08091710390917203A0916F
:1006A0007303B09174038730904BA740B04BB9F4FB
:1006B00010927103109272031092730310927403DC
:1006C00014BE84B7877F84BF0FB6F894A89581B510
:1006D000886181BD11BC0FBEE0E0F8E3099523E01D
:1006E000AEEFB0E001C01D92A137B207E1F710E014
:1006F000A0E6B0E0E0ECF2E502C005900D92AE3F5E
:10070000B107D9F70E9494210C94FC280C940000A6
:10071000A82FB92F80E090E041E050EA609530E0EA
:1007200009C02D9182279795879510F084279527EA
:10073000305EC8F36F5FA8F30895EADF8D939D9351
:100740000895CF93CFB7CF93C395839BE9F7839B4E
:100750000EC0839B0CC0839B0AC0839B08C0839BF5
:1007600006C0C0914B03C395C0934B03A6C0DF9353
:10077000C0914A03DD27C15BDC4F839B02C0DF9140
:10078000E6CF2F930F931F9300B32FEF03FB20F9B6
:100790004F933F9310B34FEF012703FB21F93BE049
:1007A00031C04E7F012F10B3216028C0102F4D7F24
:1007B0002260000000B329C04B7F2460012F00009D
:1007C00010B32BC010B3477F28602AC04F7E00B300
:1007D00020612CC04F7D10B320622FC04F7B00B32F
:1007E000206432C0422700B349934FEF0000102726
:1007F00013FB20F910B31C70C9F1297F91F2012776
:1008000003FB21F900B3237F89F2315058F11027FF
:1008100013FB22F910B3277E79F2012703FB23F99A
:100820002F7C81F200B3102713FB24F92F7971F28A
:1008300000C010B3012703FB25F92F7359F200C044
:1008400000B3102713FB26F9223040F200C010B38A
:10085000012703FB27F9243028F64F77206810B3CF
:100860000000F9CF10E81ABF00271CC03B5031959B
:10087000C31BD04010E81ABF0881033C11F10B34B0
:1008800001F1209148031981110F1213EDCF4A8114
:10089000441F093669F10D3211F0013E29F74F70FE
:1008A00009F0042F00934E033F914F911F910F9138
:1008B0002F91DF91CAB7C7FD47CFCF91CFBFCF915F
:1008C000189520914E03222379F310914C031123A4
:1008D00009F044C034300AF443C030934C032093F1
:1008E000490310914A033BE0311B30934A0338C05F
:1008F00000914C03013094F50AE54F7049F43091B2
:10090000830034FD2FC000938300C5E2D3E02EC0E6
:10091000433059F0443091F03091300334FD22C01F
:1009200000933003C1E3D3E021C03091650334FD6F
:1009300019C000936503C6E6D3E018C030913C03AC
:1009400034FD10C000933C03CDE3D3E00FC02795E6
:10095000A8F45150A9F4220F0000F9CF4AE503C0D2
:1009600042ED01C0432FC4E1D0E032E011B31C607E
:10097000939A11BB02B320E41CE05F93012756E079
:1009800002BB279520F4515021F4220FF9CF012703
:1009900056E000003B5A02BBD0F2279528F4515094
:1009A00029F4220F0000F9CF012756E0279502BB5A
:1009B00020F4515021F4220FF9CF012756E029915C
:1009C000332302BB21F6037F10914D03110FC65153
:1009D000D04002BB11F01093480310E81ABF086022
:1009E00011B3137F402F437F5F9100C000C002BB53
:1009F00011BB42BB59CF11B887E080B985B3836082
:100A000085BB86B7846086BF86B7816086BF86B7A0
:100A1000806486BF0895EF92FF920F931F93CF9348
:100A2000DF93182FEB0116BE84EA86BF0E94BF1425
:100A30007C0106B607FE21C081B1887F883021F095
:100A400081B1887F8031B9F513B984E886BF0E94EF
:100A5000BF148C0106B607FE23C021B1287F90E0A9
:100A600080E02831B1F081E090E0203411F490E092
:100A700080E09195819591090CC0CF3FDC07C9F2C8
:100A80000E94BF148E199F098C179D0790F28EEF5C
:100A90009FEFDF91CF911F910F91FF90EF900895FD
:100AA000CF3FDC07B9F20E94BF14801B910B8C175B
:100AB0009D0780F2ECCF8FEF9FEFEBCF0F931F934B
:100AC000CF93DF93EB0183B984E886BF0E94BF1404
:100AD0008C0106B607FE10C021B1287F81E090E0AE
:100AE000283211F490E080E0919581959109DF9191
:100AF000CF911F910F910895CF3FDC0751F30E94D2
:100B0000BF14801B910B8C179D0718F38EEF9FEF7E
:100B1000EECFCF92DF92EF92FF920F931F93CF937E
:100B2000DF936B018A01F22EE32E622F732F0E9456
:100B30000B05AC01E6010C0D1D1DC017D10711F00E
:100B400057FF0CC084E986BFCA01DF91CF911F9186
:100B50000F91FF90EF90DF90CF9008956F2D7E2D35
:100B600089910E945E05AC01E8CFFC01838183304E
:100B700059F130F48130C1F08230F1F080E0089515
:100B8000813209F43FC08232C9F784819581009790
:100B900009F449C0019791F78EE395E090932403FF
:100BA0008093230381E8089582E796E090932403DD
:100BB0008093230382E1089587E396E090932403D2
:100BC000809323038BE3089582818230C1F050F437
:100BD00081110DC083E396E0909324038093230357
:100BE00084E00895833051F68FEF95E0F5CF89E1E9
:100BF00096E0909324038093230388E1089585E091
:100C000096E0D4CF8281882331F0813009F0B6CFCD
:100C100082E696E002C089E496E0909324038093F4
:100C2000230389E008958FEB95E09093240380934C
:100C3000230380E4089580911E030895089584306D
:100C400071F138F48230A9F08330F1F0813031F065
:100C50000895853079F18630C1F108958091800042
:100C6000681720F4861B80938000089510928000FE
:100C7000089580918100681720F4861B809381007D
:100C8000089510928100089580917500681720F4EE
:100C9000861B8093750008951092750008958091C9
:100CA0007400681720F4861B8093740008951092D6
:100CB0007400089580917300681720F4861B809358
:100CC0007300089510927300089580917200681760
:100CD00020F4861B8093720008951092720008958C
:100CE000843009F442C038F48230E9F0833061F195
:100CF000813041F00895853009F448C0863009F408
:100D000056C0089580918000482F460F5527551FE3
:100D10004F3F510524F4680F6093800008958FEFD2
:100D200080938000089580918100482F460F5527B9
:100D3000551F4F3F510524F4680F609381000895BB
:100D40008FEF80938100089580917500482F460FA2
:100D50005527551F4F3F510524F4680F60937500C8
:100D600008958FEF80937500089580917400482F47
:100D7000460F5527551F4F3F510524F4680F6093C8
:100D8000740008958FEF809374000895809173002C
:100D9000482F460F5527551F4F3F510524F4680F24
:100DA0006093730008958FEF80937300089580918E
:100DB0007200482F460F5527551F4F3F510524F409
:100DC000680F6093720008958FEF8093720008950A
:100DD00090916602803F59F48091670287FF0DC0B1
:100DE0001092670291110BC01092620208C0813FFD
:100DF00081F48091670218169CF3992381F0809109
:100E0000680290916902892B09F064C010925F0218
:100E10000895823F49F497FFF0CF109266028091C7
:100E200067028111ECCFE0CF833F19F41916ACF3C0
:100E3000E4CF20916802893F29F41216F4F610924B
:100E40006802DBCF8A3F19F427FFD7CFF8CF209174
:100E500069028B3F29F427FFD0CF10926902CDCFD2
:100E60008C3F19F41216CCF3C8CF843F31F4809133
:100E700065028E7F80936502C0CF853F21F480910B
:100E800065028D7FF7CF863F21F4809165028B7FCD
:100E9000F1CF873F21F480916502877FEBCF883FB8
:100EA00021F4809165028F7EE5CF8D3F31F48091F2
:100EB00037028E7F80933702A0CF8E3F21F480913E
:100EC00037028D7FF7CF8F3F09F097CF80913702A0
:100ED0008B7FF0CF08958091370280FF0CC0609126
:100EE000730070E075956795759567956115710547
:100EF00049F1862F089581FF06C06091730070E06C
:100F000075956795F3CF6091730082FD0BC090914A
:100F10005F029923A1F0609172008091730096178F
:100F200038F0682F70E06038710500F38FE708959E
:100F3000899FC001112470E00E946525F4CF61E013
:100F400070E0D7CF81E008958091370280FF12C012
:100F50006091750085E0689FB001112475956795D3
:100F60007595679560387105A8F561157105A1F152
:100F7000862F089581FF09C06091750085E0689F04
:100F8000B001112475956795EDCF6091750082FDD4
:100F90000AC0809162028823D1F090917400609120
:100FA0007500891728F085E0689FB0011124DACF19
:100FB000869FB001112485E0869F9001879F300DA8
:100FC0001124692F70E0C9010E946525CBCF65E02F
:100FD00070E0CECF8FE7089581E00895803F31F42F
:100FE0000E94A4078195809367020895813F19F4B8
:100FF0000E94A407F8CF823F31F40E94A407819594
:10100000809366020895833F19F40E94A407F8CFE5
:10101000893F29F40E946B078093680208958A3FF4
:1010200021F40E946B078195F7CF8B3F31F40E942A
:101030006B0781958093690208958C3F19F40E9493
:101040006B07F8CF843F31F4809165028160809313
:1010500065020895853F21F4809165028260F7CF93
:10106000863F21F4809165028460F1CF873F21F4AF
:10107000809165028860EBCF883F21F48091650202
:101080008061E5CF8D3F31F480913702816080939C
:10109000370208958E3F21F4809137028260F7CFA6
:1010A0008F3FB9F7809137028460F1CF9C014FB731
:1010B000F8948091330290913402A0913502B0915E
:1010C00036024FBF821B930B08959C01FC013296A0
:1010D0008FEF90E04191461751F08F3F19F4411185
:1010E00001C0892F9F5F9630A9F78F3F09F40895BB
:1010F000280F311D87FD3A95F9016283089580918B
:101100002E02811110922E02089580912D0290914D
:101110002C02892B90912B02892B8093FE009091B9
:101120002E02992391F0892B8093FE0020E080E02D
:1011300091E0FC013081019631112F5F31E0863062
:101140009307B9F721110E947F08E0913902F091CD
:101150003A02309731F00280F381E02D8EEF90E07B
:1011600009940895E82F2FE0929FE00D11249E2FFF
:101170009770E695E695E69585E0E89FF0011124E5
:10118000E152FE4F50E040E080E0219130E0092E36
:1011900002C0369527950A94E2F721703327042E72
:1011A00001C0220F0A94EAF7822B4F5F5F4F453050
:1011B000510559F70895E82F2FE0929FE00D112473
:1011C0008E2F877041E001C0440F8A95EAF7E695BB
:1011D000E695E69585E0E89FF0011124E152FE4F87
:1011E00030E020E070E05191DF011197CB01022E39
:1011F00002C0969587950A94E2F7817081958527BC
:10120000842385278C932F5F3F4F2530310559F775
:1012100008958091DE019091AD01981301C0089569
:101220008F5F8770FACF882341F0809590912D02CF
:10123000892380932D020C9485080895882339F022
:1012400090912D02892B80932D020C94850808958E
:101250002091A1013091A2012817390771F09093D4
:10126000A2018093A101E0913902F0913A023097F6
:1012700021F00084F185E02D0994089520919F01CB
:101280003091A0012817390771F09093A001809345
:101290009F01E0913902F0913A02309721F00680E7
:1012A000F781E02D09940895E0913902F0913A0216
:1012B000309721F00190F081E02D099480E00895AD
:1012C000CF93DF93CDB7DEB728970FB6F894DEBF84
:1012D0000FBECDBF843030F5811125C09FB59F7DF5
:1012E0009FBD9498282F30E0AFEFBFEF0E94BB2640
:1012F00023E030E040E050E00E949926C9012C37FD
:1013000064E13607A0F469E070E00E94512579BDE0
:1013100068BD28960FB6F894DEBF0FBECDBFDF9133
:10132000CF91089583E09FB590629FBDDBCF2A5097
:10133000374D4F4F5F4FB42FA32F922F8827BC01FB
:10134000CD0125EF38E241E050E00E949926298343
:101350003A834B835C83CA01B9010E9427259B0114
:10136000AC0169817A818B819C810E942725BB27F2
:10137000A92F982F872FBC010097A140B10539F6FE
:101380006FEF7FEFC4CFFA0181110994FB01FDCF0C
:1013900080915802982F9E7F29F4817082608093FB
:1013A000580208958635E8F381708465F8CF8F92EE
:1013B0009F92AF92BF92CF92DF92EF92FF920F93E4
:1013C0001F93CF93DF93D82EC62EE901E42FF0E0D0
:1013D000EC5AFF4F611113C04491942FE42FE9831D
:1013E00048839A83DF91CF911F910F91FF90EF90E7
:1013F000DF90CF90BF90AF909F908F900895062F71
:1014000010E0E49186E0D89E700111242FEF30E0C7
:10141000C701B9010E9451258D2D90E0880F991FB9
:10142000F5E5F69FA001F79F500D1124841B950B45
:10143000982F990F890FA901401B510BE49FD001F0
:10144000E59FB00D11244B2FC89E60011124CD2CB7
:10145000DD245901AC18BD08EA9D6001EB9DD00C5C
:1014600011249D2D4901881A9108809E5001819E6A
:10147000B00C909EB00C1124AB2CBB242A193B0954
:10148000E29F8001E39F100D112463307105D1F0BC
:101490008CEFE81683E0F80670F461307105B1F066
:1014A00062307105B9F08FEFE816F10408F097CFBC
:1014B0009B2F412F94CF6430710579F06630710510
:1014C000B9F38DCF4D2D9E2FEB2F89CF4E2FED2DC4
:1014D0009B2F85CF912F4E2FF7CF9E2FE12F7FCFC0
:1014E00090914F0292FF06C0282F28712830F9F4FE
:1014F000877F846093FF06C0282F28712831F1F47C
:10150000877E84612091500220FF06C0382F3871F9
:101510003830D9F4877F816021FF06C0282F2871D9
:101520002831D1F4877E816194FD877E0895282F2C
:1015300024712430F9F68B7F8860DCCF282F24714A
:10154000243101F78B7E8861DDCF382F3171313046
:1015500019F78E7F8860E0CF282F2171213121F784
:101560008E7E8861E1CFCF93DF93972F70E02FE0DD
:10157000929F600D711D1124FB0138E7839FE00DE0
:10158000F11D1124EE0FFF1FE75AFD4FC591D491B5
:10159000CE01C03ED10509F46DC060F5C133D1055F
:1015A00009F4B2C088F4C932D10509F4A6C0CA3220
:1015B000D10509F4B0C0C130D10549F12497C13A31
:1015C000D10508F063C023C0C933D10509F44BC06D
:1015D000C238D10509F447C0C533D10509F486C026
:1015E000C83AD10508F09EC0C53AD10520F38497CA
:1015F00090640DC0C43ED10509F45BC058F4C23EEE
:10160000D10509F446C0C33ED10509F447C0DF91B6
:10161000CF910895C63ED10509F456C0C73ED10505
:1016200009F459C0C11542E5D40708F0AEC0C11590
:1016300021E5D20708F0F8C0C83ED10540F3C11536
:1016400030E5D30708F086C0C11540E4D40708F0A0
:10165000E8C0CF3FD10511F008F076C09065C03FDB
:10166000D105A8F613C020914F02237081F280EEBD
:1016700090E0CDCF20914F0220FDF8C03091500274
:1016800030FFC5CF83EE90E024FFC1CF90E080E033
:10169000BECF20914F0222FDF5CFB9CF20914F024E
:1016A00022FDE7C03091500230FDE1CF24FFAFCFE3
:1016B000EDCF2091500221FFAACF80914F0284FDEF
:1016C000E5CF87EE90E0A3CF20914F0223FF9FCF7D
:1016D00024FDDCCFF6CF20914F0223FDCDC0309109
:1016E000500231FFE3CF84EE90E091CF20914F0282
:1016F00025FF8DCF89E290E08ACF20914F0225FF10
:1017000086CF85E390E083CF20914F0226FF7FCFE5
:101710008AE290E07CCF20914F0226FF78CF81E3D0
:1017200090E075CF9E01285A31092731310508F024
:10173000ADCF885AE82FF0E0EE0FFF1FE754FF4FC0
:1017400080819181946463CFDA95C115DF4108F4FB
:101750005ECF9CCF9E01F4E036952795FA95E1F790
:10176000237086958695837030E2839FC001112493
:10177000922BC37021E030E002C0220F331FCA95C4
:10178000E2F7822B932B9C6842CFC11546E5D40724
:1017900018F5C11525E5D20708F052C0C11534E58A
:1017A000D307A8F49C2F96959695AE0143705527C4
:1017B00021E030E002C0220F331F4A95E2F740E2F9
:1017C000C115D345B0F5949FC0011124DACF9C2FE9
:1017D0008827846F906A1BCFC1158AE5D80780F4EB
:1017E000C11599E5D907A8F5CE0198558F3F910508
:1017F00011F008F04BCF9C2F8827806F906A07CF9D
:10180000CE0190568115904208F040CF8D2F8F71F8
:101810000E94700A90E0982F882788279F718C2B50
:1018200016C09F70906AF3CE9C2F8827816F906AB4
:10183000EECE949FC0011124822B932B9A68E7CEA1
:101840000E94700A90E0982F882788279F719062E5
:10185000DECE8C2F8F700E94700A34E0D695C7952B
:101860003A95E1F7CF709C2F9069D1CE89E390E053
:10187000CECE82EE90E0CBCE86EE90E0C8CEBF9288
:10188000CF92DF92EF92FF920F931F93CF93DF934C
:101890008C01C0904B02D0904C02E0904D02F09031
:1018A0004E0280912F0290913002A0913102B091AE
:1018B0003202C82AD92AEA2AFB2ACFE1D0E0BC2E7C
:1018C000D701C6010C2E04C0B695A79597958795AC
:1018D0000A94D2F780FD0EC0219788F7B12C8B2D8A
:1018E000DF91CF911F910F91FF90EF90DF90CF90FC
:1018F000BF900895B8018C2F0E94B30A019761F33D
:10190000EECFCF93DF93D82FC92F0E943F0C6D2FBE
:101910007C2FDF91CF910C94B30A0E94810C282F69
:10192000892F8F70392F32953F70903C80F43A3078
:10193000B0F4343020F4323090F480E00895363042
:10194000E1F781E0283E88F0213FB9F70EC03C3036
:1019500011F03F3091F7869586958695089581E040
:10196000203F39F018F4283E40F70895243F29F726
:10197000FCCF089580FF06C0909A81FF05C0919A20
:1019800081E008959098F9CF9198FACFCF93DF93A3
:1019900080914C03835087FD67C090914A03CCE04F
:1019A000D0E0C91BD109C15BDC4F90914903903154
:1019B00008F458C09D3209F0F9C0883009F052C0CF
:1019C00083EC809325038AE58093830010922203A1
:1019D0008881807609F49CC0803229F58981813024
:1019E00099F48C819D81892BF1F485E193E09093AA
:1019F00024038093230388E09F81911131C09E814D
:101A0000981770F5892F2CC0823041F484E193E05F
:101A1000909324038093230381E0EECF8A3029F44E
:101A20008B818093140380E0E7CF8930E1F78A81CE
:101A30009B818115924069F48C819D81892B49F4A9
:101A400081E0809321038E819F8190932003809376
:101A50001F03888187FFA8C08E8190E8909322039E
:101A60008093820010924C038091830084FF43C0D6
:101A7000809182008F3F09F43EC0C82F893008F062
:101A8000C8E0982F9C1B909382009091250328E832
:101A9000922790932503882301F18091230390914D
:101AA00024032091220326FF9DC0FC012C2F46E237
:101AB00053E03491DA013C934F5F5F4F31962150F0
:101AC000C1F79C012F5F3F4F8FEF8C0F820F932F39
:101AD000911D90932403809323036C2F86E293E05F
:101AE0000E949D0384E08C0FC83019F09FEF909303
:101AF00082008093830084E190B39C7031F4815024
:101B0000D9F710924D0310924803DF91CF910895B9
:101B10002A8110922E03998191110AC010922F03ED
:101B20002EE233E082E0309324032093230364CF3A
:101B3000953029F420934D032EE233E0F4CF963014
:101B4000C9F49B81913051F4CE010E94B50590E417
:101B5000909322038F3F09F47CCF4ECF9230A1F3B4
:101B6000933091F3913281F3923271F390E4909338
:101B7000220342CF983089F0993019F420931D0345
:101B8000DBCF9A3071F09B30B9F69BE49093310330
:101B90009093660390933D03CFCF2DE133E081E036
:101BA000C2CF2EE233E0FBCF8FEF57CF80912203DD
:101BB00087FF58CF80911F0390912003892B71F0EC
:101BC00080912103813051F4888180931E0310920B
:101BD000200310921F031092820044CF8EE1809365
:101BE000830040CFDC012C2F46E253E0FA013D9107
:101BF00030834F5F5F4F2150C9F763CF1F93CF935F
:101C0000DF93782F162FEA01888184FF1EC0898117
:101C100028E882278983AE014E5F5F4FFA01272FA4
:101C2000392F710FD9012F5F3F4F8C918193872FEF
:101C3000821B1816BCF3612FCA010E949D031C5F12
:101C40001883DF91CF911F9108958AE58883E3CFB0
:101C5000CF93DF9300D000D000D0CDB7DEB7FC012A
:101C600082E0898385E0DE01129601900D928A95CB
:101C7000E1F78091650384FF07C045E653E066E025
:101C8000CE0101960E94FE0D26960FB6F894DEBF97
:101C90000FBECDBFDF91CF910895CF93DF9300D0DA
:101CA0000F92CDB7DEB79B0190911303981307C035
:101CB000409111035091120346175707A1F08093EA
:101CC0001303309312032093110389833B832A83E8
:101CD0008091650384FF07C045E653E063E0CE01D1
:101CE00001960E94FE0D0F900F900F90DF91CF9103
:101CF0000895BC0184E00C944D0EBC0183E00C946B
:101D00004D0ECF93DF93CAE0D0E08091300384FF83
:101D10001CC080910F0390911003981799F028E050
:101D2000829FC001112440E353E068E081579D4F3A
:101D30000E94FE0D80910F0390E001968F7099270D
:101D400080930F03DF91CF9108950E94C60C87EB1B
:101D50009BE00197F1F700C000002197B1F6F2CFA8
:101D6000CF93DF93D82FC92FA0911003B0E0CD01FE
:101D700001968F70992720910F03281781F093E027
:101D8000AA0FBB1F9A95E1F7A157BD4F98E0ED2F21
:101D9000FC2F01900D929A95E1F7809310030E9419
:101DA000C60C0E94810E88E0ED2FFC2FA5E1B3E068
:101DB00001900D928A95E1F7DF91CF910895CF932D
:101DC00084E090E00E941326C82F81E290E00E94F8
:101DD0001326982F8C2FCF91089587E190E00E94D1
:101DE0001326982F81E0913009F080E008957F92CA
:101DF0008F929F92AF92BF92CF92DF92EF92FF921B
:101E00000F931F93CF93DF9300D000D000D0CDB7B6
:101E1000DEB78C016D8349830E94ED0E882309F49F
:101E20009EC02D81022F10E03981A32EB12C832F6B
:101E300090E0B0E0A0E089839A83AB83BC83BC01CF
:101E4000CD010E94DA27D62EE72EF82E9E838091B0
:101E50006A02282F30E050E040E029833A834B8328
:101E60005C83CA01B9010E94D82720E030E048E431
:101E700053E469837A838B839C8369817A818B8124
:101E80009C810E943727762E872E982EC92EA01A65
:101E9000B10AC501BB0CAA0BBB0B89839A83AB8328
:101EA000BC83BC01CD010E94DA279B01AC01798281
:101EB0008A829B82CC8269817A818B819C810E94FB
:101EC0006B289B01AC01D982EA82FB829E819C83B4
:101ED00069817A818B819C810E94CA26D62EE72E49
:101EE000F82E9E839801110F440B550B29833A83DA
:101EF0004B835C83CA01B9010E94DA272D2D3E2D48
:101F00004F2D5E8169837A838B839C8369817A817B
:101F10008B819C810E946628181664F0D982EA821F
:101F2000FB823E813C8369817A818B819C810E9406
:101F3000A9276D838D8126960FB6F894DEBF0FBE5C
:101F4000CDBFDF91CF911F910F91FF90EF90DF9068
:101F5000CF90BF90AF909F908F907F900895F801A1
:101F6000F491FD83E7CF90E080E00E9421269C0160
:101F700081E02C3E3E4F09F080E008950F931F93BF
:101F8000CF93DF938B01D82FC92F0E94C809A801D6
:101F90006D2F7C2F88E090E0DF91CF911F910F9102
:101FA0000C943826CF93DF9300D000D0CDB7DEB7A6
:101FB00080915C02882319F0815080935C028091AB
:101FC000580290915902A0915A02B0915B02898304
:101FD0009A83AB83BC83BC01CD010F900F900F900F
:101FE0000F90DF91CF910C94BE0FCF93DF9300D071
:101FF00000D0CDB7DEB780915C02833018F48F5FDC
:1020000080935C028091580290915902A0915A02EB
:10201000B0915B0289839A83AB83BC83BC01CD0101
:102020000F900F900F900F90DF91CF910C94BE0FF7
:10203000CF93DF9300D000D0CDB7DEB7E8E5F2E074
:1020400083E0808311828FEF828383831482808177
:102050009181A281B38189839A83AB83BC83BC01C4
:10206000CD010F900F900F900F90DF91CF910C94B6
:10207000BE0F6CEE7EEF90E080E00E94442660E0B0
:1020800082E090E00E94272660E083E090E00E94DA
:10209000272610922F0210923002109231021092D5
:1020A000320260E084E090E00E94272660E081E256
:1020B00090E00E94272660E085E090E00E942726BD
:1020C00060E086E090E00E9427266FEF87E090E0D6
:1020D0000E94272640E050E0BA0188E090E00E948C
:1020E000382660E08DE090E00E94272640E050E036
:1020F000BA0188E190E00E94382660E087E190E034
:102100000E94272640E050E0BA018CE190E00E9456
:10211000382660E080E290E00E94272640E050E010
:10212000BA018FE090E00E94382640E050E0BA010A
:1021300083E190E00C9438260E94B30F811102C015
:102140000E94391086E090E00E9413268093A3013C
:10215000803220F0877088618093A3019091A30161
:10216000892F817090FF04C0892F8695869586956A
:102170000C9460098091580280FD0AC0EDE0F1E006
:10218000118210821282339681E0E334F807C1F79E
:1021900080910901811105C00E94FB0481E08093B8
:1021A000090124E630E046E350E06DE071E080EBA9
:1021B0000C9489058F929F92AF92BF92CF92DF923B
:1021C000EF92FF920F931F93CF93DF93FC01B280A6
:1021D000A48081E08483C3E4D1E00DE011E08BE4CE
:1021E000982E88248394EE24EA94F12C2BE4C22EBA
:1021F000D12CA1101DC01B821A8298014A816981CD
:1022000088810E94D70925960D5F1F4F81E0CD3947
:10221000D80779F7DF91CF911F910F91FF90EF9041
:10222000DF90CF90BF90AF909F908F900C94BA109A
:102230002B81222309F121502B833C81892D821B84
:10224000311101C0822F90915B02899FC00111243E
:10225000B6010E9451256A83211104C0332311F075
:102260001C829B8222E02B1540F2809159028883C8
:1022700080915A028983C1CF0E94F6258230914015
:102280000CF0BBCF82E08B15C0F40E94F625B7019D
:102290000E946525888322E02B1590F40E94F62584
:1022A00020915A022695622F70E00E946525280F22
:1022B00029831A829B828C82A0CF80915902EACF17
:1022C00020915A02F5CFEF92FF921F93CF93DF93A5
:1022D000EC018DE0E82E81E0F82E10E08C81970172
:1022E00040915B0260915A02810F0E94D709125FF0
:1022F00083E0E80EF11C1C3F89F70E94BA109A8116
:102300008C8190FF08C08F5F8C83DF91CF911F91EC
:10231000FF90EF9008958150F7CFCF92DF92EF9228
:10232000FF920F931F93CF93DF93FC018281DD24F3
:10233000DA9480FD02C0DD24D3940DE011E0D0E0FA
:10234000C0E0F80111821082128294E0E92EF12C93
:10235000C12C80910A018C0D8331E4F162E10E946D
:102360004325892F082E000C990B8C179D0791F49B
:1023700080915B028E9DA0018F9D500D112455957B
:10238000479555954795980160915A028091590259
:102390000E94D709CD0CF1E0EF1AF108D1F6219691
:1023A0000D5F1F4FC231D10561F60E94BA108091B6
:1023B0000A0191E0D91214C0811110C081E180930B
:1023C0000A01DF91CF911F910F91FF90EF90DF9065
:1023D000CF90089587FFC6CF8E5EC4CF8150EFCFD8
:1023E00090E00196BE010E946525E9CF0F931F93EF
:1023F000CF93DF93EDE0F1E01182108212823396E9
:1024000081E0E334F807C1F7D0E0C0E002E110E07A
:10241000CE010596B8010E94652520910B01022E80
:10242000000C330BFC01EE0FFF1FE80FF91FC21762
:10243000D3078CF120917000022E000C330B2C1767
:102440003D074CF19F01235F3E4F40915B0260913D
:102450005A02809159020E94D7092196C231D105B2
:10246000B9F60E94BA1080916F0090910B01980FFD
:1024700090930B0120917000280F2093700012168A
:1024800014F491311CF0819580936F00DF91CF910E
:102490001F910F910895E35FFE4F11821082128207
:1024A000DCCFCF92DF92EF92FF920F931F93CF93E7
:1024B000DF93CDB7DEB72E970FB6F894DEBF0FBE11
:1024C000CDBF8D879E87AD85BE8514961C91212F2B
:1024D00030E0D9010E94BB269B01AC010E948626F8
:1024E00069837A838B839C83E0E2F0E0E11BF1094E
:1024F000A5E5B0E09B01AC010E94862669877A873A
:102500008B879C879F01DF010E947F259B01AC0187
:102510000E9491266D837E838F8398879B01AC01F7
:1025200089819A81AB81BC81280F391F4A1F5B1FAB
:1025300069857A858B859C850E949926F22E822F4B
:1025400090E0A9E2A21708F442C0B3E02B9F9001EB
:10255000112435952795122F10959DE0C92E91E0F5
:10256000D92E00E085E5E82EEF188E2D01FD8F2D88
:102570009601412F60915A020E94D7090F5FF3E044
:10258000CF0ED11C023189F70E94BA10AD85BE85ED
:1025900014969C9181E0992319F0903219F48FEFF1
:1025A0008093710080917100890FED85FE85848391
:1025B0002E960FB6F894DEBF0FBECDBFDF91CF9140
:1025C0001F910F91FF90EF90DF90CF90089525E538
:1025D00030E0F901E81BF90B9F01220F331F2E0F8A
:1025E0003F1F37FFB6CF2F5F3F4FB3CFEF92FF9222
:1025F0000F931F93CF93DF93EC010DE011E0F12CCB
:10260000E12C60915A02809159029C8129E0E216E6
:10261000F104FCF49923F9F0980140915B020E94C7
:10262000D7098FEFE81AF80A0D5F1F4F22E1E21673
:10263000F10439F70E94BA108C8190E00196817004
:1026400099278C83DF91CF911F910F91FF90EF908D
:102650000895992309F3980140E0E1CF9091580241
:1026600090FF0CC0EDE0F1E08183608342833396FC
:1026700091E0E334F907C1F70C94BA1008950F9371
:102680001F93CF93DF9300D00F92CDB7DEB78C01AD
:1026900080910C0181110AC09E012F5F3F4F4FEFC7
:1026A0006FEF0E94D7098A8180930C01F801648141
:1026B000613049F06230F1F080910C0140E0662316
:1026C00031F040E019C060910C0140E080E00E94D0
:1026D0002E13F801848190E0019663E070E00E947F
:1026E000652584830F900F900F90DF91CF911F91FC
:1026F0000F91089540910C0180E060E0E8CFCF9306
:10270000DF9300D00F92CDB7DEB79091580290FFC3
:102710000AC09E012F5F3F4F0E94D7094B816981FC
:102720008A810E942E130F900F900F90DF91CF910E
:102730000895CF93DF93EC01EC81F0E0E75AFE4F70
:102740004491E8E5F2E0628181810E947F138C81EF
:102750008F5F8C83DF91CF910895CF93DF93EC014E
:10276000E8E5F2E0438162818C810E947F138C81D5
:102770008F5F8C83DF91CF9108955F926F927F92EC
:102780008F929F92AF92BF92CF92DF92EF92FF9281
:102790000F931F93CF93DF9300D000D000D00F9200
:1027A000CDB7DEB7182F762E042F622E90915802E7
:1027B00090FF2BC0E92FE695AE2FB0E0AC57BF4F8E
:1027C0008C9180935D029E7F9230A9F59E012F5FD0
:1027D0003F4F812F0E94D7094B8169818A810E94D6
:1027E0002E131093590270925A0200935B026620D6
:1027F00061F08091580290915902A0915A02B091D3
:102800005B02BC01CD010E94BE0F27960FB6F89463
:10281000DEBF0FBECDBFDF91CF911F910F91FF9013
:10282000EF90DF90CF90BF90AF909F908F907F9070
:102830006F905F900895823019F400915B02D1CFC0
:10284000863019F410915902CCCF8930D9F38931EF
:1028500041F6E9518E2F8170582EE695F0E0EC5A42
:10286000FE4FA590B490BB248DE0E82E81E0F82EB9
:10287000D12CC12C92E1892E912CC601B4010E9469
:102880005125812F511013C0860F9701402F672DBE
:102890000E94D709CA0CDB1C93E0E90EF11CA3E4EB
:1028A000EA16A1E0FA0649F70E94BA109ACF861BF1
:1028B000ECCFE8E5F2E0438128E0421B08F440E079
:1028C00021E0628181810C94BD13E8E5F2E043814F
:1028D00028E0420F08F44FEF21E0628181810C94DF
:1028E000BD13E8E5F2E0628128E0621B08F460E0D5
:1028F00021E0438181810C94BD13E8E5F2E062811F
:1029000028E0620F08F46FEF21E0438181810C948D
:10291000BD13E8E5F2E0818121E0438162818850C6
:102920000C94BD13E8E5F2E0818121E043816281EE
:10293000885F0C94BD1378941F921FB61F921124C8
:102940008F939F93AF93BF93809133029091340202
:10295000A0913502B09136020196A11DB11D809360
:10296000330290933402A0933502B0933602BF91A4
:10297000AF919F918F911F901FBE1F9018952FB7F9
:10298000F8948091330290913402A0913502B09175
:1029900036022FBF08950E94BF1420916602309125
:1029A0006702232B21F080936302909364022091AD
:1029B000680230916902232B21F08093600290938A
:1029C0006102E0913902F0913A02309731F00480CF
:1029D000F581E02D85E692E00994089510922C028D
:1029E00010922B020E94850885E0E5E6F2E0DF0107
:1029F0001D928A95E9F71092620210925F0210927E
:102A000037020E94CB1490E080E00E943E0990E0E3
:102A100080E00C94280960934B0270934C028093E1
:102A20004D0290934E020C94EE140F931F93CF938C
:102A3000DF9300D000D0CDB7DEB741E050E060E0DA
:102A400070E004C0440F551F661F771F8A95D2F7A8
:102A5000409550956095709580914B0290914C02F5
:102A6000A0914D02B0914E028A019B0108231923C7
:102A70002A233B2309831A832B833C83C901B80192
:102A80000F900F900F900F90DF91CF911F910F91AA
:102A90000C940B1590912A028095892380932A0229
:102AA000282F277071F4282F082E000C330B921753
:102AB000130639F08595859585950E941515109218
:102AC0002A0208950F931F93CF93DF9300D000D075
:102AD000CDB7DEB741E050E060E070E004C0440FE5
:102AE000551F661F771F8A95D2F780914B029091F0
:102AF0004C02A0914D02B0914E028A019B01082B1D
:102B0000192B2A2B3B2B09831A832B833C83C90166
:102B1000B8010F900F900F900F90DF91CF911F9100
:102B20000F910C940B1560932F02709330028093D9
:102B30003102909332020C94EE1410922D02E0E0D8
:102B4000F1E086E0DF011D928A95E9F70C94EE141E
:102B50000F931F93CF93DF9300D000D0CDB7DEB794
:102B600041E050E060E070E08A019B0104C0000F8A
:102B7000111F221F331F8A95D2F709831A832B83D3
:102B80003C83C901B8010E9493150F900F900F90DC
:102B90000F90DF91CF911F910F910C949D150E9482
:102BA0009D152FEB87E299E0215080409040E1F79E
:102BB00000C0000060E081E090E00E944A2687E0CB
:102BC00090EBDC018093710390937203A0937303E5
:102BD000B093740388E19CE00FB6F894A89581BD8A
:102BE0000FBE91BDFFCF8B3258F48530C0F0EBEFB4
:102BF000E80FE632A0F4F0E0E250F74D0C947925AE
:102C0000833450F48A3308F050C0853309F449C046
:102C1000883329F481E00895833409F442C080E0C8
:102C200008950E943910F6CF80916E02807F8093C4
:102C30006E0281E08093380208950E94CF15909132
:102C40006E02892F8E7F90FF816080936E0280FDDF
:102C5000E1CF817F80936E02DDCF90916E02892F4C
:102C60008D7F91FF826080936E0281FFD3CF809130
:102C70006E028160EFCF90916E02892F8B7F92FF61
:102C8000846080936E0282FDF2CFC4CF90916E0279
:102C9000892F877F93FF886080936E0283FDE7CF43
:102CA000B9CF80E00E94A815B5CF8953FBCF8D51D5
:102CB000F9CF8823F1F19CEF980F913A78F4E0E096
:102CC000F1E026E031E09191891303C0DF01119713
:102CD0001C922E173F07B9F70C94850890E2980FC5
:102CE000983088F4877021E030E0A90102C0440FD9
:102CF000551F8A95E2F7CA01809590912D0289238C
:102D000080932D02E9CF9BE5980F933020F490E05B
:102D100080E00C943E0998E5980F973120F490E0FC
:102D200080E00C942809803F20F00E94E8060C9473
:102D3000CB140895CF93C82F882309F440C08CEF9B
:102D40008C0F813A08F09CC080913802813081F06C
:102D5000823051F1811173C080912D02823209F0CD
:102D600070C08C2F0E94F315982F911128C069C054
:102D700080912D028232A9F3C43171F030F4CB304E
:102D800089F0C03161F090E005C0C93229F091E0CE
:102D9000C833C9F79170E9CF10923802F4CF82E0BE
:102DA0008093380291E0F6CFCB3481F198F4C432AD
:102DB00040F4CE3100F5C73079F1C43121F0CF9124
:102DC0000895C932E1F78091A601882381F010921D
:102DD000A601F5CFC135C1F061E0C235C1F06AE0AE
:102DE000CE3469F78091A601CF910C941F0681E043
:102DF00080933802E4CFCE51EC2FF0E0E155FF4F45
:102E000080818093A601DBCF61E0ECCF6AE0809106
:102E1000A601CF910C9470068EE18093800082E32E
:102E2000809381008AE08093750084E18093740030
:102E300088E08093730088E280937200C0CF109284
:102E40003802E0E0F1E0DF018D91C81761F021E088
:102E5000A630B207C9F76C2F8EEF90E00E9465088C
:102E6000CF910C9485088191C81303C0DF0111979D
:102E70001C9231E0E630F307B1F70E948508EBCFF2
:102E800080E28C0F883068F4C77021E030E001C028
:102E9000220FCA95EAF780912D02822B80932D0292
:102EA000DFCF8BE58C0F833038F42C2F2452330B7B
:102EB000C901CF910C943E09E8E5EC0FE73150F4DD
:102EC000F0E0EE0FFF1FE754FF4F80819181CF911B
:102ED0000C942809C03F08F472CF8C2F0E94EE0793
:102EE000CF910C94CB14FF920F931F93CF93DF934A
:102EF000C42FD22FFC0182818823A9F04093A40122
:102F00000E94BF1490939E0180939D01C77081E041
:102F100001C0880FCA95EAF7DF91CF911F910F91F9
:102F2000FF900C941E091091A401141337C08091D6
:102F30009D0190919E010E945608883C910570F574
:102F4000C0E2CD0F1D17A9F01770FF24F3948F2D49
:102F500001C0880F1A95EAF70E941309C83048F497
:102F60008D2F877001C0FF0C8A95EAF78F2D0E9484
:102F70001E09802F0E949A16802F0E945916C83071
:102F8000A0F4D77081E001C0880FDA95EAF7DF91ED
:102F9000CF911F910F91FF900C941309C77081E09E
:102FA00001C0880FCA95EAF7F2CFDF91CF911F9148
:102FB0000F91FF900895CF93DF9300D000D0CDB74D
:102FC000DEB79091580290FF49C09170811135C0D1
:102FD000926090935802662381F0809158029091FC
:102FE0005902A0915A02B0915B0289839A83AB8304
:102FF000BC83BC01CD010E94BE0F60915802669552
:1030000070E04BE050E084E690E00E940626892BB9
:10301000D9F010925E0281E08093550220E0409149
:103020005B0260915A02809159020F900F900F90AD
:103030000F90DF91CF910C94BD138B3210F09465FB
:10304000C8CF880F982BC5CF81E080935E020E9485
:10305000BF149093530280935202DDCF0F900F90D4
:103060000F900F90DF91CF9108959091580296950F
:103070008FEF890F913009F48AE261E00C94DB173D
:103080008091580286958F5F8B3208F081E061E075
:103090000C94DB179091580290FF07C096959817F3
:1030A00020F0961710F40C94401861E00C94DB1794
:1030B0007F928F929F92AF92BF92CF92DF92EF92C8
:1030C000FF920F931F93CF93DF93CDB7DEB729976E
:1030D0000FB6F894DEBF0FBECDBF7C01DC011396A6
:1030E0008D919C911497892B41F01C911196DC9045
:1030F000812F8D218F3F09F0B3C529960FB6F89423
:10310000DEBF0FBECDBFDF91CF911F910F91FF901A
:10311000EF90DF90CF90BF90AF909F908F907F9077
:1031200008950E943F0C082F682F89819A810E9480
:10313000DB08E12FF0E0BFE0DB9EE00DF11D112484
:1031400018E7019FE00DF11D1124EE0FFF1FE75A54
:10315000FD4F059114910E94ED0ED70112969C919E
:10316000882309F44FC0992309F44EC080916A0264
:10317000883C18F48E5F80936A020E3BBCE51B0707
:1031800009F4B3C008F05FC00C3BFCE51F0709F46D
:1031900092C00D3B2CE5120709F495C00B3B3CE5B2
:1031A000130709F46EC0992309F46DC51092A401A8
:1031B00006313CE5130708F025C102304CE5140741
:1031C00008F4E3C10E94DF0E9093500280934F02F7
:1031D00006315CE5150708F040C102306CE51607C2
:1031E00008F02EC160914F021091500284E090E0EF
:1031F0000E942726612F81E290E00E9427260E94EC
:103200009D1597C09111B9CF033F6CE5160709F4DE
:10321000E1C008F0C6C0083D8CE5180709F4D4C029
:10322000093DACE51A0709F4E7C0073DBCE51B07FB
:1032300009F0B9CF06E221EE41EE67ED7CE5C7016A
:103240000E94731776C00F3B4CE5140709F463C066
:10325000003C5CE51507C1F69091A301892F869586
:10326000869586958F5F8F719770843008F096C031
:10327000880F880F880F892B8093A3018091A30169
:103280002BC08091A301877088618093A301887F00
:1032900091E009F490E08091A30190FB80F9809384
:1032A000A30183E00E9460096091A30186E090E0A1
:1032B0000E9427263EC08091A30187708E7F809355
:1032C000A30180E0EFCF8091A301982F987F09F4AC
:1032D0005FC088508093A301887F91E009F490E05B
:1032E0006091A30190FB60F913C08091A301982F16
:1032F000969596959695883140F49F5F990F990F12
:10330000990F8770892B8093A3016091A30161605D
:103310006093A30139C06091A30160FF2BC06E7F51
:103320006093A30186E090E00E94272680E00E943F
:10333000600980912A02877009F4DFCED7011296C6
:103340008C91882309F4D9CE82E029960FB6F8949F
:10335000DEBF0FBECDBFDF91CF911F910F91FF90C8
:10336000EF90DF90CF90BF90AF909F908F907F9025
:103370000C944A1561606093A301613019F489E0EF
:103380008093A3016091A30186E090E00E9427262C
:103390008091A301869586958695C9CF9093A301C8
:1033A0006DCF053FECE51E07D9F0063FFCE51F0792
:1033B000E9F0043F2CE5120709F0F5CE07E225EE0F
:1033C00044EE64EF7CE53BCF07E225EE45EE68ED89
:1033D0007CE535CF06E221EE40EE63EF7CE52FCFB2
:1033E00006E221EE42EE65EF7CE529CF07E225EE0D
:1033F00046EE66EF7CE523CF08E221E045EE69ED7D
:103400007CE51DCF98012A5F3C452930310508F441
:10341000D9CE0631BCE51B0709F0B7C080912D025B
:103420008A7A91E009F490E09093A50169E2811114
:1034300065E38EEF90E00E9465080E94850879CFD1
:10344000F801E350FC4580914F028160E331F105C2
:1034500090F4EC5DF64D0C9479250A5F1C4509301B
:10346000110508F0BFCE095C164DF8010C947925C2
:1034700080914F02826080934F02B4CE80914F02C0
:103480008460F9CF80914F028860F5CF809150021F
:10349000816080935002A6CE809150028260F9CF65
:1034A00080914F028061E7CF80914F028062E3CF2D
:1034B00080914F028064DFCF0E949D1580914F0262
:1034C0008068D9CF80914F028C60D5CF8091500217
:1034D0008360DFCF80914F028E7FCDCF80914F02EE
:1034E0008D7FC9CF80914F028B7FC5CF80914F02D6
:1034F000877FC1CF809150028E7FCBCF80915002C9
:103500008D7FC7CF80914F028F7EB5CF80914F02C4
:103510008F7DB1CF80914F028F7BADCF0E949D15E3
:1035200080914F028F77A7CF80914F02837FA3CFE7
:10353000809150028C7FADCF80914F0282FB992702
:1035400090F921E0922790FB82F990FB83F993CFC9
:1035500080915002982F909591708E7F892B90FBCF
:1035600081F997CF0E949D1590914F02892F97FB6B
:1035700087F9805880CF61E08EE090E00E94272696
:1035800031CE60E0F9CF85E387C380912D0282724E
:10359000F801E25CFC45E431F10508F082C0E05C32
:1035A000F64D0C9479258091580280FF21C08E7FC2
:1035B00080935802009158021091590220915A02AA
:1035C00030915B020E831F8328873987C901B801B8
:1035D0000E94BE0F10925E021FEB24ED31E01150ED
:1035E00020403040E1F700C000000E94BA10A1CE98
:1035F00081608093580261E086950E94DB1799CE26
:1036000045E358E160E478E10E94C30992CE40E4CA
:1036100058E165E378E1F8CF49E854E162E974E103
:10362000F3CF42E954E169E874E1EECF41E754E1B8
:103630006DE774E1E9CF4DE754E161E774E1E4CF70
:1036400049E554E165E674E1DFCF45E654E169E51B
:1036500074E1DACF42ED5FE065EF7FE0D5CF45EF73
:103660005FE062ED7FE0D0CF61E081E0C6CF65E052
:1036700082E00E944A185DCE68E086E0FACF6EE0F4
:1036800089E0F7CF64E18FE0F4CF67E185E1F1CF26
:1036900061E088E1B2CF62E289E1EBCF61E083E2F1
:1036A000ACCF9923C9F0063D4CE5140761F00E3DFF
:1036B0005CE5150729F001151C4571F40E94CF1532
:1036C0000E94391036CE0E94ED0E60E0811101C0DB
:1036D00061E087E190E0ECCDF701C080D1809923D3
:1036E00009F43FC0C6010E943F0C182F682FC60185
:1036F0000E94DB08B601812F0E94B30A8C01782E4C
:10370000D7011596CC901597C2943FE0C32212962C
:10371000DC90D11010922C0280912A02877099F0CF
:10372000DD2089F0812F807F803421F080E2800FBE
:10373000883048F082E00E944A1580912A02877002
:10374000992493948111912C812F82958F70A82EAA
:10375000B12C8C3008F03FC0F501EC5AF64D0C94BA
:103760007925C6010E94B208182FC4CFB12FBF70AF
:10377000CB2E107F19F0C29420EFC222802FDD20C3
:10378000C9F0CC2069F090E2900F983010F0011150
:103790000BC080912D02C82AC0922D020E9485087C
:1037A000802F0E949A1617C080912C02C82AC092BE
:1037B0002C02F4CF0E945916CC2069F0C094005E10
:1037C000083010F0711049C080912D02C822C092BB
:1037D0002D020E948508A8E0AA1AB108B4E0AB1631
:1037E000B10420F40E9454090E94BA0C9920A9F057
:1037F00080912A0280FD11C0F7011282859585957E
:1038000085950E946215C7010E94581880912A026E
:103810008595859585950E94151585E0F701DE0152
:10382000119601900D928A95E1F789819A810E9403
:10383000B2089A81E981F0E00FE0909FE00DF11D60
:10384000112418E7819FE00DF11D1124EE0FFF1FD9
:10385000E75AFD4F8591949150CC80912C02C8225B
:10386000C0922C02B6CFE12FEF708E2E107F103257
:1038700019F0829490EF8922772089F0F1E07F1689
:1038800079F1DD20D1F1CC2089F1D70115968C9109
:10389000159780FF85CF8F7015968C9327C0DD20FC
:1038A00091F090912E02882D892BC11003C00E94A7
:1038B0001E0991CF01E0C012FACF981709F48BCFFF
:1038C00080932E0288CFC11006C00E947F08882DE9
:1038D0000E94130980CF11E0C11609F47CCFF5CF07
:1038E000DD2031F025E02C1508F475CF882DDFCFD1
:1038F00034E03C1508F46FCFEACFCC2041F3093314
:1039000049F4BFEFEDEEF2E0B150E040F040E1F7F6
:1039100000C00000802F0E9459165DCF812F869530
:103920008695837061F0813009F055CFC80193709E
:10393000D11002C090E080E00E9428094CCFC8015D
:103940009370D11002C090E080E00E943E0943CF06
:10395000802FDD2029F00E94EE070E94CB143BCF80
:103960000E94E806FACF812F837009F072C0D1104F
:1039700032CF202F229526952770220F220F402F1D
:103980004F7050E070E060E0022E04C0440F551FFD
:10399000661F771F0A94D2F780E090E0DC0104FFF5
:1039A0000FC08FE090E0A0E0B0E004C0880F991F46
:1039B000AA1FBB1F2A95D2F780959095A095B09528
:1039C000E12FE695E695E370E23051F1E33009F13D
:1039D00000912F0210913002209131023091320279
:1039E000E13099F0842B952BA62BB72BAC01BD01B0
:1039F00040235123622373234E835F836887798733
:103A0000CB01BA010E949315E6CE402B512B622BBD
:103A1000732B8A019B01082B192B2A2B3B2B12C0DD
:103A2000842B952BA62BB72B40912F02509130025F
:103A300060913102709132028C019D01042715279B
:103A4000262737270E831F8328873987C901B801A6
:103A5000D9CF8695DD2011F0812F8170882309F45C
:103A6000BACE202F229526952770220F220F402FA5
:103A70004F7050E070E060E0022E04C0440F551F0C
:103A8000661F771F0A94D2F780E090E0DC0104FF04
:103A90000FC08FE090E0A0E0B0E004C0880F991F55
:103AA000AA1FBB1F2A95D2F780959095A095B09537
:103AB000E12FE695E695E370E23081F1E330F9F02D
:103AC00000914B0210914C0220914D0230914E0218
:103AD000E13089F0842B952BA62BB72BAC01BD01CF
:103AE00040235123622373234E835F836887798742
:103AF000CB01BA0110C0402B512B622B732B8A01D2
:103B00009B01082B192B2A2B3B2B0E831F83288705
:103B10003987C901B8010E940B155DCE842B952B06
:103B2000A62BB72B40914B0250914C0260914D0255
:103B300070914E028C019D010427152726273727F7
:103B4000E4CF1F70DD2029F0812F0E946215802FA5
:103B5000AECE802F0E941309812F0E9415153BCEF7
:103B6000802F22EF721609F446C0271570F030EF4F
:103B7000731609F141EF7416B1F1DD2009F460C04C
:103B8000C1100ECE812F8F7133C053EF7516C1F166
:103B900064EF7612F2CFDD2009F447C01F71812F48
:103BA0000E94621558E0159FC00111248360809324
:103BB0002A02812F1DC0DD2089F074E07C1508F4F5
:103BC0000ACE1F7181E090E0A0E0B0E004C0880F51
:103BD000991FAA1FBB1F1A95D2F7A4CF25E02C1559
:103BE00008F4F9CDEECF812F8F71DD2009F4B5CF28
:103BF0000E946215F0CD812F8F71DD20C9F3ADCF0A
:103C000060E070E0CB01DD2009F485CF1F7181E019
:103C100090E0A0E0B0E0AC01BD0104C0440F551F2E
:103C2000661F771F1A95D2F75FCF81E00E944A1571
:103C300061E06C1508F0CFCD82E00E944A15CBCD33
:103C4000CC2059F0893309F065CE7FEF8DEE92E0FC
:103C5000715080409040E1F75BCE812F8F717DCF16
:103C600085E0F701DE01119601900D928A95E1F74A
:103C7000D70112962C9189819A81211152CA0E94F2
:103C8000B208082F56CA06311C4509F025CD80918F
:103C9000A501811178CC89E2E0E0F1E026E031E095
:103CA0009191891303C0DF0111971C922E173F07D2
:103CB000B9F7C3CB1F93CF93DF938091AC01807F83
:103CC000A9F48091A901882389F08091DE01D09127
:103CD000AD016091A7017091A801A091AA01B091D6
:103CE000AB01C62FC72316E0D81304C0DF91CF91D4
:103CF0001F91089590E0109711F0CF3F19F40196AD
:103D00008770F2CF189F9001199F300D1124F9018F
:103D1000E255FE4F41814713F2CF40814613EFCF6A
:103D200042814111ECCF438154814A1B5B0B483CDB
:103D3000510528F78091AC018F7080618093AC01B0
:103D4000F901ED54FE4F80818F708061808387EA96
:103D500091E00E945818DF91CF911F910C940909AE
:103D6000AF92BF92CF92DF92EF92FF920F931F9389
:103D7000CF93DF93CDB7DEB72B970FB6F894DEBFA6
:103D80000FBECDBF8C0185E0F801DE0117960190D2
:103D90000D928A95E1F7F80180819181E28027EA0E
:103DA000A22E21E0B22E6091AA017091AB016115A3
:103DB000710509F421C13091A7014091A801242F78
:103DC00023232F3F09F418C1C380D480F090A901A8
:103DD000F601E61BF70BFF2009F4DFC02091AC01D0
:103DE000522F507FE83CF10508F0BAC0511177C05E
:103DF000FE2C491321C038131FC0E1101DC02F70C5
:103E000020612093AC01C5010E9458188091AC013B
:103E1000F80185838F2D2B960FB6F894DEBF0FBE69
:103E2000CDBFDF91CF911F910F91FF90EF90DF9069
:103E3000CF90BF90AF900895CD2829F0282F292347
:103E40002F3F09F0F7C020E0F22FF170DF2EE09154
:103E5000DE014091AD0156E020FD1CC0EE20D1F204
:103E60008091AC0181608093AC01F12CD3CF2E2FD7
:103E700030E05E9FF0011124E255FE4F6181961300
:103E800006C06081861303C06281E612E7CFF901A4
:103E90003196E770E413EBCF8F8398878F819885F5
:103EA0000E94810C292F22952F70903260F0225FA2
:103EB0002F70223078F49F7051F0F8019581907F37
:103EC00031F4D12C0AC09F7011F08823D1F3805EA9
:103ED0008830B8F3C8010E945818FD2C9BCF4913B5
:103EE00012C0381310C0E1100EC0F8012583C801BC
:103EF0000E94581886E0F801A7EAB1E001900D92FF
:103F00008A95E1F787CF8F8398878F8198850E9464
:103F10008D0C882309F1EE20F9F08091AC018032FC
:103F200070F02091A7013091A8013A8329831B8268
:103F3000DD82CC828E83CE0101960E94581886E0E5
:103F4000F801A7EAB1E001900D928A95E1F70E948D
:103F50005A1EFF24F3945ECFC8010E945818F9CF6F
:103F600051110AC087EA91E00E94581886E0F501D5
:103F700011928A95E9F779CF4913C5CF3813C3CF8A
:103F8000E110C1CFF8012583C8010E94581886E0CE
:103F9000F50111928A95E9F73DCFE83CF105B8F7B4
:103FA000FE2CEE20C9F2491316C0381314C08091BC
:103FB000AC0180FD9FCF982F907F09F49BCFF80133
:103FC0008583903F09F493CF982F907F905F8F70F7
:103FD000892B85838CCF8F8398878F8198850E94CA
:103FE0008D0C8111ACCF8091AC0181608093AC01CC
:103FF000C8010E9458180ECFEE2009F4ADCF8F8370
:1040000098878F8198850E948D0CF82E882309F45B
:10401000A3CF86E0F801A7EAB1E001900D928A955E
:10402000E1F78091A7019091A8010E94810C0E9464
:104030005A1EF0CE21E02E2507CF1F93CF93DF939A
:10404000CDB7DEB767970FB6F894DEBF0FBECDBF12
:104050004B8B5C8B6D8B7E8B8F8B1A8A85E0FE0180
:104060007396DE011D9601900D928A95E1F786E028
:10407000FE013D96DE01179601900D928A95E1F7BB
:10408000CE0107960E94B01E882389F016E0809129
:10409000DE019091AD0189134FC067960FB6F89479
:1040A000DEBF0FBECDBFDF91CF911F91089586E097
:1040B000FE013796DE01119601900D928A95E1F787
:1040C0004A855B854115510509F37F816885862FF7
:1040D00087238F3FD9F22091AD0130E0C9010196CD
:1040E00087709927E091DE01E817190671F40E94A4
:1040F0009D151092AD011092DE0186E0E7EAF1E035
:10410000DF011D928A95E9F7C1CF79836A835D83C8
:104110004C8396E0929FD001939FB00D1124A2553D
:10412000BE4FFE01319601900D929A95E1F7809372
:10413000AD010E940909AACF819FC00111248255B7
:104140009E4F0E94B01E882309F4A7CF8091DE0104
:1041500090E00196877099278093DE0198CF6F9247
:104160007F929F92AF92BF92CF92DF92EF92FF9297
:104170000F931F93CF93DF9367EE70E09BE3692E5D
:1041800092E0792E2FEEA22E20E0B22EC0E0EE2497
:10419000E394F12CDB018D91BD01E82FE295EF70E6
:1041A000F0E091A98F70870101C0000F8A95EAF7AE
:1041B000892F802B81AB82A9902E9094892182AB8C
:1041C000B8E7BA95F1F78FEEC82E80E0D82E50E010
:1041D00040E030E020E0D601DD916D018D2F829529
:1041E0008F7090E0DC01D0968C9190E0DF7002C07F
:1041F00095958795DA95E2F780FD7EC0C701042E7C
:1042000002C0880F991F0A94E2F7282B392B4F5FC1
:104210005F4F4F305105F9F681A9892181AB82A901
:10422000082B02ABF301808191812817390709F42B
:1042300066C03183208381E0C82BF2E06F0E711CD1
:10424000A616B70609F0A6CFCC2309F45AC081E020
:10425000809308010E94BF14909307018093060188
:1042600080910601909107010E945608069708F474
:104270004CC080913B0290913C02909380028093CD
:104280007F0280913D0290913E0290938202809342
:10429000810280913F02909140029093840280932A
:1042A0008302809141029091420290938602809312
:1042B00085028091430290914402909388028093FA
:1042C0008702809145029091460290938A028093E2
:1042D0008902809147029091480290938C028093CA
:1042E0008B028091490290914A0290938E028093B2
:1042F0008D021092080109C090E080E086CF80E036
:104300009BCF809108018111ABCF8C2FDF91CF9192
:104310001F910F91FF90EF90DF90CF90BF90AF90E3
:104320009F907F906F900895CDB7DEB72E970FB610
:10433000F894DEBF0FBECDBF0E94BF14D82EC92E89
:1043400084B7806884BF84B7806884BF889A899A5C
:1043500086E790E090933A028093390285B78860AF
:1043600085BF8BB780688BBF8BE4809331038093CC
:10437000660380933D038AE5809330038093650351
:1043800080933C038B9A80E0815009F035C28B9872
:104390007894BFEBE4EDF1E0B150E040F040E1F79C
:1043A00000C000008BE083BF8BEB8CBF82E089BF35
:1043B000A7EEB0E02FEE30E041E050E08D91E82F25
:1043C000E295EF70F0E011A98F70BA0101C0660F9D
:1043D0008A95EAF7962F9095912391AB82A9862B27
:1043E00082AB2A173B0751F7AFEEB0E02EEF30E07B
:1043F00041E050E08D91E82FE295EF70F0E011A9D7
:104400008F70BA0101C0660F8A95EAF7962F9095D2
:10441000912391AB82A9862B82AB2A173B0751F7D8
:10442000EBE3F2E08BE492E0AFE7B2E0119211929D
:104430001D921D928E179F07C9F70E94B30F81111D
:1044400002C00E9439108C9A949882E28FBD89E153
:104450008EBD8FEF9FEF97BD86BD0E949C100E947E
:10446000B30F811102C00E94391082E090E00E94D7
:10447000132680936E020E94DF0E90935002809369
:104480004F0283E090E00E941326282F30E050E096
:1044900040E02B873C874D875E87CA01B9010E94A7
:1044A00093150E949C1080915102811133C00E948B
:1044B000B30F811104C00E9439100E94181088E0C7
:1044C00090E00E941B2660935802709359028093DB
:1044D0005A0290935B026E7F71F40E94181088E07C
:1044E00090E00E941B2660935802709359028093BB
:1044F0005A0290935B020E94C80910925E0280915A
:10450000580280FF04C060E086950E94DB1781E0BE
:104510008093510210E05CE2E52E55E0F52E80918B
:104520004B03882309F470C110924B030E94BF14FF
:10453000D82EC92E0E94C60C80911D03882309F431
:1045400057C18091300384FF53C10E94AF20EFE632
:10455000F2E0AFE7B2E010E000E0702F8D919D91A6
:10456000219131912817390709F46DC1282739277E
:1045700060E0AA24A394B12CA9014A215B21452B18
:1045800009F45BC169837A839C012A213B2191E074
:10459000232B09F490E09B830E94BF148160782F45
:1045A0009D838C8349815A816B818D810E941D205E
:1045B000000F111FF801E159FD4F80819181A8265C
:1045C000B926B182A08280915E02882309F444C09A
:1045D00090915D02809158028695891B80935402C8
:1045E000923009F047C190E044E661E0865C9A4F62
:1045F0000E94F70E082F10E0F9E9AF2EF3E1BF2E6D
:1046000080915502882389F0109255020E94BF14B0
:10461000980120953095280F391F3093530220932D
:1046200052021092570210925602809152029091BB
:1046300053020E9456088017910770F08091520231
:1046400090915302800F911F9093530280935202D6
:1046500082E592E0F501099585E0E5E6F2E0DE010C
:10466000119601900D928A95E1F7A0906602109143
:10467000670200916802B09069021092660210927F
:1046800067021092680210926902812F8A2991F0C4
:1046900080916302909164020E9456089C0180916F
:1046A0006202882309F45FC190918100921713067A
:1046B00008F467C1802F8B2909F448C080916002FB
:1046C000909161020E9456089C0180915F028823AC
:1046D00009F4B8C125363105C8F18F3F19F08F5F55
:1046E00080935F02002359F00E946B079FEF101622
:1046F0000CF491E0899F802D112480936802BB20E7
:1047000059F00E946B079FEF1B140CF491E0899FF6
:10471000802D112480936902309168023323B1F017
:1047200020916902222391F045EB3403C00111244A
:10473000992309F465C19093680255EB2503900114
:104740001124332309F460C1309369028091660219
:1047500090916702892B90916802892B9091690250
:10476000892B11F00E94CB14AA821B830C83BD827B
:1047700085E0FE013196A5E6B2E001900D928A95A2
:10478000E1F70E94ED0E882339F100916B02109140
:104790006C02C8010E945608853F914010F4012B1D
:1047A000D9F480916A02882319F0815080936A02BB
:1047B00080916A02853618F0815080936A02809158
:1047C0006A02873918F0825080936A020E94BF14EF
:1047D00090936C0280936B020E94540990916D0239
:1047E000891731F00E94540980936D020E94BA0C1F
:1047F0000E94810E10E093CEA895A7EBBBE0119725
:10480000F1F700C00000C0CD8D2D9C2D0E945608F0
:10481000069718F4112309F48DCE0E94AF208FE87B
:1048200092E0EFE7F2E021913191232B09F0F0C003
:104830008E179F07C1F711E072CE6F5FAA0CBB1CE9
:104840006F3009F099CE0F5F1F4F0830110509F046
:1048500084CE8FEF8E838F8318860E94BF14816071
:10486000782F9A8789874E815F8168858A850E9423
:104870001D20A9CE963071F490E044E665E0895C95
:104880009A4F0E94F70E082F10E0EDEAAE2EE3E1FA
:10489000BE2EB6CE993079F4869590E044E661E07C
:1048A0008C5C9A4F0E94F70E082F10E073E6A72E3B
:1048B00071E1B72EA5CE9F3079F4869590E048EC53
:1048C00061E08F5C9A4F0E94F70E082F10E06DE8B0
:1048D000A62E61E1B62E94CE953171F490E044E6B7
:1048E00065E0825D9A4F0E94F70E082F10E056EFA8
:1048F000A52E51E1B52E84CE08E210E021E5A22ECE
:1049000022E1B22E983109F47BCE933241F4F701C3
:10491000059114914FE3A42E43E1B42E71CE94324D
:10492000A1F09532C9F463E00E943725892F90E009
:1049300042E365E0875D9A4F0E94F70E082F10E072
:104940003AEDA32E30E1B32E5BCE04EF11E096EFEB
:10495000A92E92E1B92E54CE00ED17E08EE1A82EDB
:1049600086E0B82E4DCE40918000FAE04F9FA00126
:1049700011244217530708F09DCE8F5F8093620287
:1049800002C08F3FD1F7AA2059F00E94A4079FEFE1
:104990001A140CF491E0899F802D112480936602F3
:1049A000112359F00E94A4079FEF11160CF491E017
:1049B000899F802D112480936702309166023323F2
:1049C00009F478CE20916702222309F473CE45EBD7
:1049D0003403C0011124992359F09093660255EBDA
:1049E000250390011124332339F03093670262CEFE
:1049F00081E080936602F3CF81E0809367025ACE14
:104A000081E08093680299CE81E0809369029ECE16
:104A1000F89421B3939A822F8C6081BB92B33CE0CF
:104A2000932792BBBFE5EAEEF0E0B150E040F040E2
:104A3000E1F700C0000082B3832782BB21BB9398BB
:104A40007894F9CE2D32314008F049CE7FCEDB018B
:104A50008F939F930E948626BF91AF91A29F800D56
:104A6000911DA39F900DB29F900D11240895991B45
:104A700079E004C0991F961708F0961B881F7A9555
:104A8000C9F78095089587FB082E062687FD819536
:104A900067FD61950E9437250EF4919507FC81957D
:104AA0000895AA1BBB1B51E107C0AA1FBB1FA61775
:104AB000B70710F0A61BB70B881F991F5A95A9F7C7
:104AC00080959095BC01CD01089597FB072E16F4B3
:104AD000009407D077FD09D00E94512507FC05D02E
:104AE0003EF4909581959F4F0895709561957F4F05
:104AF0000895EE0FFF1F0590F491E02D09940E9498
:104B0000BB26332312F48A1B9B0B0C9489250E942D
:104B1000BB26B7FF0895821B930B0895CF92DF92B7
:104B2000EF92FF92CF93DF93CDB7DEB72A970FB600
:104B3000F894DEBF0FBECDBF89879A87A985BA8555
:104B40002D913D914D915C9129833A834B835C83F8
:104B5000232B242B252B41F424E239ED4BE557E0A0
:104B600029833A834B835C8369817A818B819C8121
:104B70002DE133EF41E050E00E94672669017A01A0
:104B8000A7EAB1E49B01AC010E94862669837A837F
:104B90008B839C83ACEEB4EFA70196010E94942610
:104BA0009B01AC0189819A81AB81BC81820F931FEB
:104BB000A41FB51FB7FF03C00197A109B048E9853D
:104BC000FA8580839183A283B3839F772A960FB659
:104BD000F894DEBF0FBECDBFDF91CF91FF90EF9075
:104BE000DF90CF9008950E948E25089580E690E092
:104BF0000E948E250895B0E0A0E08093600090931D
:104C00006100A0936200B09363000895FC014150DD
:104C1000504030F001900616D1F73197CF0108953A
:104C2000882799270895E199FECF9FBB8EBBE09A14
:104C300099278DB30895A6E1B0E044E050E00C94CC
:104C40005926A8E1B0E042E050E00C945926262F06
:104C5000E199FECF9FBB8EBBE09A01970DB2021681
:104C600031F02DBB0FB6F894E29AE19A0FBE089589
:104C70000396272F0E9428260E942726252F0E9470
:104C80002826242F0C9428260196272F0E942826B8
:104C90000C942726262FE199FECF9FBB8EBB2DBB00
:104CA0000FB6F894E29AE19A0FBE01960895DC01DE
:104CB000CB01FC01E199FECF06C0FFBBEEBBE09A41
:104CC00031960DB20D9241505040B8F70895052E1F
:104CD00097FB1EF400940E947E2657FD07D00E9489
:104CE000992607FC03D04EF40C947E2650954095EF
:104CF000309521953F4F4F4F5F4F08959095809588
:104D0000709561957F4F8F4F9F4F08950E94BB26EE
:104D1000A59F900DB49F900DA49F800D911D11240F
:104D20000895B7FF0C9486260E948626821B930B5B
:104D30000895A1E21A2EAA1BBB1BFD010DC0AA1FDC
:104D4000BB1FEE1FFF1FA217B307E407F50720F0F4
:104D5000A21BB30BE40BF50B661F771F881F991F6F
:104D60001A9469F760957095809590959B01AC01B8
:104D7000BD01CF010895A29FB001B39FC001A39FC1
:104D8000700D811D1124911DB29F700D811D112484
:104D9000911D08955058BB27AA270E94E2260C9423
:104DA0002C280E941E2838F00E94252820F039F473
:104DB0009F3F19F426F40C941B280EF4E095E7FBB2
:104DC0000C941528E92F0E943D2858F3BA17620762
:104DD00073078407950720F079F4A6F50C945F28F3
:104DE0000EF4E0950B2EBA2FA02D0B01B901900106
:104DF0000C01CA01A0011124FF27591B99F0593F4A
:104E000050F4503E68F11A16F040A22F232F342F91
:104E10004427585FF3CF469537952795A795F040DF
:104E20005395C9F77EF41F16BA0B620B730B840BF4
:104E3000BAF09150A1F0FF0FBB1F661F771F881FAC
:104E4000C2F70EC0BA0F621F731F841F48F4879504
:104E500077956795B795F7959E3F08F0B0CF9395F6
:104E6000880F08F09927EE0F9795879508950E946F
:104E70004B270C942C280E94252858F00E941E28AD
:104E800040F029F45F3F29F00C94152851110C943F
:104E900060280C941B280E943D2868F39923B1F3E5
:104EA000552391F3951B550BBB27AA276217730750
:104EB000840738F09F5F5F4F220F331F441FAA1FE4
:104EC000A9F335D00E2E3AF0E0E832D091505040A0
:104ED000E695001CCAF72BD0FE2F29D0660F771F4E
:104EE000881FBB1F261737074807AB07B0E809F034
:104EF000BB0B802DBF01FF2793585F4F3AF09E3FB9
:104F0000510578F00C9415280C9460285F3FE4F369
:104F1000983ED4F3869577956795B795F7959F5FFB
:104F2000C9F7880F911D9695879597F90895E1E047
:104F3000660F771F881FBB1F621773078407BA07A6
:104F400020F0621B730B840BBA0BEE1F88F7E09501
:104F500008950E94452888F09F5798F0B92F992707
:104F6000B751B0F0E1F0660F771F881F991F1AF054
:104F7000BA95C9F714C0B13091F00E945F28B1E032
:104F800008950C945F28672F782F8827B85F39F031
:104F9000B93FCCF3869577956795B395D9F73EF4ED
:104FA00090958095709561957F4F8F4F9F4F089595
:104FB000E89409C097FB3EF49095809570956195B3
:104FC0007F4F8F4F9F4F9923A9F0F92F96E9BB2769
:104FD0009395F695879577956795B795F111F8CFE5
:104FE000FAF4BB0F11F460FF1BC06F5F7F4F8F4F50
:104FF0009F4F16C0882311F096E911C0772321F046
:105000009EE8872F762F05C0662371F096E8862FDD
:1050100070E060E02AF09A95660F771F881FDAF734
:10502000880F9695879597F9089597F99F6780E877
:1050300070E060E008959FEF80EC089500240A94EA
:105040001616170618060906089500240A94121663
:105050001306140605060895092E0394000C11F496
:10506000882352F0BB0F40F4BF2B11F460FF04C043
:105070006F5F7F4F8F4F9F4F089557FD9058440F9C
:10508000551F59F05F3F71F04795880F97FB991FA7
:1050900061F09F3F79F08795089512161306140664
:1050A000551FF2CF4695F1DF08C0161617061806F1
:1050B000991FF1CF86957105610508940895E894CC
:1050C000BB2766277727CB0197F908950E94D82838
:1050D00008F48FEF08950E947E280C942C280E94DB
:1050E0001E2838F00E94252820F0952311F00C94FA
:1050F00015280C941B2811240C9460280E943D282C
:1051000070F3959FC1F3950F50E0551F629FF0011A
:10511000729FBB27F00DB11D639FAA27F00DB11D33
:10512000AA1F649F6627B00DA11D661F829F2227BC
:10513000B00DA11D621F739FB00DA11D621F839F43
:10514000A00D611D221F749F3327A00D611D231F19
:10515000849F600D211D822F762F6A2F11249F5767
:1051600050409AF0F1F088234AF0EE0FFF1FBB1F6A
:10517000661F771F881F91505040A9F79E3F510529
:1051800080F00C9415280C9460285F3FE4F3983E5F
:10519000D4F3869577956795B795F795E7959F5FD3
:1051A000C1F7FE2B880F911D9695879597F9089565
:1051B000990F0008550FAA0BE0E8FEEF1616170628
:1051C000E807F907C0F012161306E407F50798F090
:1051D000621B730B840B950B39F40A2661F0232BA9
:1051E000242B252B21F408950A2609F4A140A69525
:1051F0008FEF811D811D0895F894FFCF1D161416A1
:105200001F160A160F160F160A160F160F163B1644
:105210000F1646160F160F160F160F160F160A1634
:105220000F160F160A160F162D160F160F165716F5
:105230005716571657165716571657165716571606
:1052400051160F161D161116381A3E1A421A501A08
:10525000541A581A5C1A621A6A1A6E1A721A761A54
:10526000821A861A8A1A8E1A941AB21A9C1A461A26
:105270004C1A7A1A7E1A661A981AA81ABB1AC11AF8
:10528000D31A001B071B0C1B111B161B1B1B201BFF
:10529000251B2A1B2F1B341B371B3C1B3F1B421B90
:1052A000451B481B4B1B4E1BB61BB61B331C331C2C
:1052B0008E1CA81CEB1BEB1BB31CA11DB01DB01D4D
:1052C0000100000001191A1B1C1D1E1F20212201B4
:1052D00002012808140A1B06B00E280E7D0E790E56
:1052E0001E32FF5A000102020202060606090909DF
:1052F0000909090F0F0F0F0F0F1515151819191997
:1053000019191919191919232425252525252501C8
:10531000020304050607080900E200E900EA00B5F7
:1053200000B600B700CD008301CC008A0192019441
:10533000012102230224022502260227022A02B3A7
:1053400000B4006F0070006061626364656667901E
:0E535000919293949596973736353433320701
:00000001FF
