:100000000C947F090C94C3090C948C0A0C94C309BA
:100010000C94C3090C94C3090C94C3090C94C30930
:100020000C94C3090C94C3090C947A280C94C3094A
:100030000C94C3090C94C3090C94C3090C94C30910
:100040000C94C3090C94C3090C94C3090C94C30900
:100050000C94C309E000E200E300E10000000000AE
:100060006200000063005800E600015100004900F2
:100070000000E1001D001B000600190005005900EA
:100080005A005B0058003800E50000004600000000
:10009000025104001600070009000A005C005D0020
:1000A0005E00570033003400280028004C002B006D
:1000B00014001A000800150017005F0060006100BE
:1000C000570013002F0030003100000035001E00E3
:1000D0001F002000210022004D0054005500560052
:1000E00027002D002E002A002A00290000003A00D7
:1000F0003B003C003D00000000000000000000004C
:1001000042004300440045003E0023001C000B0059
:1001100011002C005000510052004F003F002400FD
:1001200018000D0010004100260012000F003700DB
:10013000E7004A00000047004B00400025000C008B
:100140000E00360001000100010001000000000067
:100150000100000001000100010001000000010099
:100160000000010001000100010001000100010088
:100170000100010001000100010000000100000079
:10018000C45CC65CC85CCA5CCC5C010001000100B8
:100190000100010001000100010001000100C35C39
:1001A000C55CC75CC95CCB5C0100010001000100BB
:1001B000010001000100010001000000C25CCD5CF3
:1001C000CE5CCF5CD05CD15C01000100010001007D
:1001D00001000100010001000100005C0000DE5C84
:1001E000010001000100000000000000000000000C
:1001F00001000100010001000100D25C01000100CA
:100200000100010001000100010001000100D35CB8
:1002100001000100010001000100010001000100D6
:10022000010001000000010001000100D45C010098
:1002300001000100E000E200E300E1000000000036
:100240006200000063005800E60001510000490010
:100250000000E1001D001B00060019000500590008
:100260005A005B0058003800E5000000460000001E
:10027000390004001600070509050A005C005D004E
:100280005E00570033003400280028004C002B0586
:1002900014001A000800150017005F0060006100DC
:1002A000570013002F0030003100000035001E0001
:1002B0001F002000210022004D0054005500560070
:1002C00027002D002E002A002A00290000003A00F5
:1002D0003B003C003D00000000000000000000006A
:1002E00042004300440045003E0023001C000B0078
:1002F00011002C005005510552054F053F00240008
:1003000018000D0010004100260012000F003700F9
:10031000E7004A00000047004B00400025000C05A4
:100320000E00360044454255473A206469736162C5
:100330006C65642E0A0044454255473A20656E615B
:10034000626C65642E0A000A002530313662003A7C
:10035000200025303258000A722F632030313233AA
:100360003435363738394142434445460A007267CE
:10037000626C696768742074696D65722064697362
:1003800061626C652E0A007267626C69676874202E
:1003900074696D657220656E61626C65642E0A0019
:1003A0007267626C6967687420736574206873761D
:1003B000205B4E4F454550524F4D5D3A2025752CE0
:1003C00025752C25750A007267626C696768742050
:1003D00073657420687376205B454550524F4D5DC0
:1003E0003A2025752C25752C25750A007267626CDC
:1003F00069676874207261696E626F7720736574D3
:10040000206873763A2025642C25642C25642C25DD
:10041000750A007267626C69676874206469736149
:10042000626C65205B454550524F4D5D3A207267C6
:10043000626C696768745F636F6E6669672E656E6C
:1004400061626C65203D2025750A007267626C69E7
:1004500067687420656E61626C65205B454550522B
:100460004F4D5D3A207267626C696768745F636FB5
:100470006E6669672E656E61626C65203D2025752C
:100480000A007267626C6967687420746F67676CD2
:1004900065205B454550524F4D5D3A207267626C56
:1004A000696768745F636F6E6669672E656E616207
:1004B0006C65203D2025750A007267626C6967686B
:1004C00074206D6F6465205B4E4F454550524F4D13
:1004D0005D3A2025750A007267626C69676874204E
:1004E0006D6F6465205B454550524F4D5D3A202548
:1004F000750A007267626C696768745F696E697417
:10050000207267626C696768745F636F6E666967A3
:100510002E6D6F6465203D20302E20577269746502
:100520002064656661756C742076616C75657320F6
:10053000746F20454550524F4D2E0A007267626C11
:10054000696768745F696E6974206565636F6E665C
:100550006967206973206E6F7420656E61626C65D7
:10056000642E0A007267626C696768745F696E69FD
:1005700074207374617274210A007267626C696717
:1005800068745F696E69742063616C6C65642E0ABF
:10059000007267626C696768745F636F6E66696733
:1005A0002E7370656564203D2025640A00726762C1
:1005B0006C696768745F636F6E6669672E76616CDD
:1005C000203D2025640A007267626C696768745F69
:1005D000636F6E6669672E736174203D2025640A1F
:1005E000007267626C696768745F636F6E666967E3
:1005F0002E687565203D2025640A007267686C6965
:100600006768745F636F6E6669672E6D6F646520DF
:100610003D2025640A007267626C696768745F63D5
:100620006F6E6669672E656E61626C65203D202580
:10063000640A007267626C696768745F636F6E66F4
:10064000696720454550524F4D3A0A0000047F3FEC
:100650001F643214643214783C1E1E140A052223CF
:10066000252628292A2C2D2F3032333536383A3B8F
:100670003D3E4042434547494A4C4E5051535557E1
:10068000595A5C5E6062646668696B6D6F71737500
:1006900077797B7D7F81838587898A8C8E90929400
:1006A00096989A9C9E9FA1A3A5A7A8AAACAEAFB10D
:1006B000B3B4B6B8B9BBBCBEBFC1C2C3C5C6C7C957
:1006C000CACBCCCDCED0D1D2D2D3D4D5D6D7D7D811
:1006D000D9D9DADADBDBDBDCDCDCDCDCDDDDDDDD63
:1006E000DCDCDCDCDCDBDBDBDADAD9D9D8D7D7D66B
:1006F000D5D4D3D2D2D1D0CECDCCCBCAC9C7C6C522
:10070000C3C2C1BFBEBCBBB9B8B6B4B3B1AFAEAC67
:10071000AAA8A7A5A3A19F9E9C9A98969492908E12
:100720008C8A89878583817F7D7B79777573716FEB
:100730006D6B6968666462605E5C5A5957555351C7
:10074000504E4C4A4947454342403E3D3B3A38367D
:10075000353332302F2D2C2A292826252322FFAA93
:100760007F55400001010101010101010102020266
:10077000020202020202030303030303030304044D
:100780000404040404050505050506060606060717
:100790000707070708080808090909090A0A0A0BD0
:1007A0000B0B0C0C0C0D0D0D0E0E0E0F0F0F101071
:1007B00011111112121313141415151616171718F8
:1007C0001819191A1A1B1B1C1D1D1E1E1F20202163
:1007D0002222232424252626272829292A2B2C2DAA
:1007E0002D2E2F30313232333435363738393A3BCB
:1007F0003C3D3E3F404142434445464748494A4CC0
:100800004D4E4F50515354555658595A5B5D5E5F8B
:10081000616264656668696B6C6D6F707273757721
:10082000787A7B7D7E8082838587888A8C8E8F9183
:10083000939596989A9C9EA0A2A3A5A7A9ABADAFAD
:10084000B1B3B5B7BABCBEC0C2C4C6C9CBCDCFD197
:10085000D4D6D8DBDDDFE2E4E7E9EBEEF0F3F5F840
:10086000FAFDFF0A002530325820006B6579626F6F
:100870006172645F7265706F72743A20000A0025BD
:10088000303258006B6579626F6172645F736574B2
:100890005F6C65643A2000290A002575002F002549
:1008A00075005D28002564002000256400200025D7
:1008B000640020002564007C0025303258006D6FF4
:1008C0007573656B6579205B62746E7C7820792026
:1008D0007620685D287265702F61636C293A205B11
:1008E000006D6B5F776865656C5F74696D655F74DB
:1008F0006F5F6D6178203D2025640A006D6B5F7726
:100900006865656C5F6D61785F7370656564203DD7
:100910002025640A006D6B5F74696D655F746F5F9D
:100920006D6178203D2025640A006D6B5F6D6178F4
:100930005F7370656564203D2025640A006D6B5F00
:10094000696E74657276616C203D2025640A006DC5
:100950006B5F64656C6179203D2025640A006D6BD6
:100960005F776865656C5F74696D655F746F5F6DF7
:100970006178203D2025640A006D6B5F77686565AE
:100980006C5F6D61785F7370656564203D202564E0
:100990000A006D6B5F74696D655F746F5F6D617880
:1009A000203D2025640A006D6B5F6D61785F737078
:1009B000656564203D2025640A006D6B5F696E7477
:1009C000657276616C203D2025640A006D6B5F6462
:1009D000656C6179203D2025640A000A00257500B8
:1009E000363A20776865656C5F74696D655F746F12
:1009F0005F6D61783A20000A00257500353A20774E
:100A00006865656C5F6D61785F73706565643A20D9
:100A1000000A00257500343A2074696D655F746FB3
:100A20005F6D61783A20000A00257500333A206D29
:100A300061785F73706565643A20000A002575006F
:100A4000323A20696E74657276616C286D73293A4A
:100A500020000A00257500313A2064656C61792810
:100A60002A31306D73293A20000A092D2056616C15
:100A7000756573202D0A004D3E004D25643E200013
:100A80003F007365742064656661756C740A004389
:100A90003E200077686572652064656C74613A2059
:100AA000637572736F723D25642C20776865656C81
:100AB0003D25640A53656520687474703A2F2F656C
:100AC0006E2E77696B6970656469612E6F72672F2E
:100AD00077696B692F4D6F7573655F6B6579730A05
:100AE000000A092D204D6F7573656B6579202D0AFD
:100AF0004553432F713A09717569740A313A096493
:100B0000656C6179282A31306D73290A323A096996
:100B10006E74657276616C286D73290A333A096DBB
:100B200061785F73706565640A343A0974696D654C
:100B30005F746F5F6D61780A353A09776865656C37
:100B40005F6D61785F73706565640A363A0977682E
:100B500065656C5F74696D655F746F5F6D61780A60
:100B60000A703A097072696E742076616C756573EB
:100B70000A643A097365742064656661756C747300
:100B80000A75703A092B310A646F776E3A092D3174
:100B90000A706775703A092B31300A7067646F7795
:100BA0006E3A092D31300A0A7370656564203D2064
:100BB00064656C7461202A206D61785F737065656F
:100BC00064202A2028726570656174202F20746962
:100BD0006D655F746F5F6D6178290A003F004D3E5F
:100BE0002000433E20004C25640A0074696D657244
:100BF0005F72656164333228293A202530346C589D
:100C00000A00686F73745F6B6579626F6172645F0D
:100C10006C65647328293A2025580A000A092D209A
:100C2000537461747573202D0A004743433A20388A
:100C30002E332E30204156522D4C4942433A203219
:100C40002E302E30204156525F415243483A2061A7
:100C50007672350A004F5054494F4E533A2056553C
:100C60005342204D4F5553454B45592045585452FA
:100C7000414B455920434F4E534F4C4520434F4D18
:100C80004D414E4420343039360A004255494C44D7
:100C90003A2022302E372E32362D312D67653431F1
:100CA0006665642D646972747922202832303A3581
:100CB000383A3330205365702032342032303139A5
:100CC000290A005649443A203078323041302844CD
:100CD0006F6E75744361626C657329205049443AA4
:100CE000203078343232442862756467657439364E
:100CF00029205645523A204445564943455F5645BA
:100D0000520A00444553433A204445534352495004
:100D100054494F4E0A000A092D2056657273696FB7
:100D20006E202D0A000A092D20436F6E736F6C65CB
:100D3000202D0A4553432F713A09717569740A6D64
:100D40003A096D6F7573656B65790A000A092D2084
:100D50004D61676963202D0A443A094465627567ED
:100D6000204D65737361676520546F67676C650A12
:100D7000583A094D6174726978204465627567203C
:100D80004D6F646520546F67676C65202D20536834
:100D90006F77206B65797072657373657320696E08
:100DA000206D617472697820677269640A4B3A0930
:100DB0004B6579626F617264204465627567205487
:100DC0006F67676C65202D2053686F77206B65799E
:100DD0007072657373207265706F72740A4D3A0990
:100DE0004465627567204D6F75736520546F676742
:100DF0006C650A563A0956657273696F6E0A533A02
:100E0000095374617475730A433A094163746976CE
:100E100061746520436F6E736F6C65204D6F646500
:100E20000A46312D4631303A095377697463682098
:100E3000746F204C6179657220302D39202846313D
:100E400030203D204C30290A302D393A095377693A
:100E500074636820746F204C6179657220302D397D
:100E60000A47524156453A095377697463682074BA
:100E70006F204C6179657220302028616C74657236
:100E80006E617465290A423A094A756D7020746F63
:100E900020426F6F746C6F616465720A4553433A08
:100EA000094A756D7020746F20426F6F746C6F61AA
:100EB0006465722028616C7465726E617465290ABC
:100EC000453A095072696E7420454550524F4D2085
:100ED00053657474696E67730A4253504143453ACF
:100EE00009436C65617220454550524F4D0A000A16
:100EF000002575002E6E6B726F3A20000A00257572
:100F0000002E737761705F6261636B736C617368ED
:100F10005F6261636B73706163653A20000A00254C
:100F200075002E737761705F67726176655F6573B8
:100F3000633A20000A002575002E6E6F5F677569A1
:100F40003A20000A002575002E737761705F726188
:100F50006C745F726775693A20000A002575002E6F
:100F6000737761705F6C616C745F6C6775693A2050
:100F7000000A002575002E737761705F7263746CD0
:100F80005F726775693A20000A002575002E737735
:100F900061705F6C63746C5F6C6775693A20000AFE
:100FA000002575002E636170736C6F636B5F746FE7
:100FB0005F636F6E74726F6C3A20000A00257500D3
:100FC0002E737761705F636F6E74726F6C5F6361B5
:100FD00070736C6F636B3A20000A00253032580042
:100FE0006B65796D61705F636F6E6669672E7261A4
:100FF000773A20000A002575002E6D6F7573653AEB
:1010000020000A002575002E6B6579626F6172649D
:101010003A20000A002575002E6D61747269783AD5
:1010200020000A002575002E656E61626C653A200D
:10103000000A00253032580064656275675F636F8F
:101040006E6669672E7261773A20000A0025750086
:1010500064656661756C745F6C617965723A2000D5
:101060003F000A6D6F7573653A206F66660A000A65
:101070006D6F7573653A206F6E0A000A6B65796251
:101080006F6172643A206F66660A000A6B65796266
:101090006F6172643A206F6E0A000A6D6174726942
:1010A000783A206F66660A000A6D61747269783A50
:1010B000206F6E0A000A64656275673A206F666683
:1010C0000A000A64656275673A206F6E0A000A0AB0
:1010D0004A756D70696E6720746F20626F6F746CF3
:1010E0006F616465722E2E2E2000433E2000436CFB
:1010F000656172696E6720454550524F4D0A006523
:1011000065636F6E6669673A0A006D61696E206C8F
:101110006F6F700A00696E6974466F72557362432F
:101120006F6E6E656374697669747928290A000A9E
:101130000025303258005345545F4C45443A200056
:101140000A0056454E444F523A00554E4B4E4F57AB
:101150004E3A005345545F4C45443A2000534554A1
:101160005F5245504F52543A2000253032580053B8
:1011700045545F49444C453A20004745545F494433
:101180004C453A20004745545F5245504F52543A1F
:10119000006B6275663A2066756C6C0A00290A005D
:1011A00025303258005D28002575002D3E0025753C
:1011B00000562D5553423A206B6275665B0009025A
:1011C0003B0002010080FA09040000010301010054
:1011D00009210101000122400007058103080001E7
:1011E000090401000103000000092101010001229E
:1011F00084000705830308000105010902A1018598
:10120000020901A10005091901290515002501752B
:1012100001950581027503950181030501093009D6
:10122000311581257F7508950281060938158125BC
:101230007F35004500750895018106050C0A3802C6
:101240001581257F750895018106C0C005010980BB
:10125000A1018503150126B700190129B77510955D
:10126000018100C0050C0901A10185041501269C1E
:101270000219012A9C02751095018100C00501091F
:1012800006A10175019508050719E029E715002554
:1012900001810295017508810395057501050819FD
:1012A00001290591029501750391039506750815AD
:1012B0000026FF000507190029FF8100C012011058
:1012C0000100000008A0202D4200020102000112CE
:1012D0000362007500640067006500740039003621
:1012E00000180344006F006E007500740043006135
:1012F0000062006C006500730004030904001124FF
:101300001FBECFE5D8E0DEBFCDBF04B603FE24C0CC
:101310008091D6029091D702A091D802B091D902C3
:101320008730904BA740B04BB9F41092D602109280
:10133000D7021092D8021092D90214BE84B7877FC8
:1013400084BF0FB6F894A89581B5886181BD11BCA2
:101350000FBEE0E0F8E3099510E0A0E6B0E0ECEAAB
:10136000F9E602C005900D92AA3CB107D9F722E038
:10137000AAECB0E001C01D92A63DB207E1F70E94C1
:101380006E300C94B6340C940000FF93EF93E09110
:10139000CA00F091CB00309709F00995EF91FF91C9
:1013A0000895FC018591803011F0EFDFFBCF0895A7
:1013B000FF27E0E230E247FF0CC0419597FF09C0EC
:1013C000EDE26095709580959095611D711D811D70
:1013D000911D27FF02C0219530E350E2AA27660F36
:1013E000771F881F991FAA1FA41710F0A41B6395CD
:1013F0005A95A9F7AA3008F0A95FA05DAF93F395BD
:10140000611571058105910541F7ED3211F4EF93F6
:10141000F395F21718F43F93F395FBCF8F91B5DF57
:10142000FA95E1F70895E991F9918591803021F0DD
:10143000853219F0AADFF9CF089520E0E89455919C
:101440005532C1F3503311F4689455915A3348F42E
:10145000505390F3220F022E220F220F200D250F42
:10146000F4CF0EF4219589919991533619F353379E
:1014700029F1533559F1BC0188279927E8945C3646
:1014800021F48991999168945591543639F446EF35
:101490007EF077FF0DC08FEF9FEF0AC055374AE00F
:1014A00039F0583540E121F0523642E009F0089514
:1014B000FF93EF937DDFEF91FF91B7CFFF93EF9312
:1014C000FC0181918030B9F360DFFBCFFF93EF9394
:1014D00068DFF1CFDF93CF93CDB7DEB72596A3DFDB
:1014E000CF91DF910895A82FB92F80E090E041E0DF
:1014F00050EA609530E009C02D9182279795879535
:1015000010F084279527305EC8F36F5FA8F3089525
:10151000EADF8D939D930895CF93CFB7CF93C39573
:10152000839BE9F7839B0EC0839B0CC0839B0AC0FF
:10153000839B08C0839B06C0C091AD02C395C09336
:10154000AD02A3C0DF93C091AC02DD27CC54DD4FC8
:10155000839B02C0DF91E6CF2F930F931F9300B3BD
:101560002FEF03FB20F94F933F9310B34FEF012769
:1015700003FB21F93BE031C04E7F012F10B3216006
:1015800028C0102F4D7F2260000000B329C04B7F80
:101590002460012F000010B32BC010B3477F2860D8
:1015A0002AC04F7E00B320612CC04F7D10B3206253
:1015B0002FC04F7B00B3206432C0422700B3499351
:1015C0004FEF0000102713FB20F910B31C70C9F176
:1015D000297F91F2012703FB21F900B3237F89F2D0
:1015E000315058F1102713FB22F910B3277E79F2FE
:1015F000012703FB23F92F7C81F200B3102713FB93
:1016000024F92F7971F200C010B3012703FB25F9EB
:101610002F7359F200C000B3102713FB26F92230B4
:1016200040F200C010B3012703FB27F9243028F64D
:101630004F77206810B30000F9CF10E81ABF0027D9
:1016400019C03B503195C31BD04010E81ABF088128
:10165000033CF9F00B34E9F02091AA021981110F33
:101660001213EDCF4A81441F093641F10D3211F0BA
:10167000013E29F70093B2023F914F911F910F91C4
:101680002F91DF91CAB7C7FD4ACFCF91CFBFCF917E
:1016900018952091B202222379F31091B002112300
:1016A000C1F53430C2F13093B0022093AB021091F7
:1016B000AC023BE0311B3093AC022DC00091B00274
:1016C00001303CF50AE54F7049F43091820034FD59
:1016D00024C000938200C3E9D2E023C0433049F024
:1016E00030919E0234FD19C000939E02CFE9D2E0F2
:1016F00018C03091CA0234FD10C00093CA02CBEC6E
:10170000D2E00FC02795A8F45150A9F4220F000091
:10171000F9CF4AE503C042ED01C0432FC4E1D0E058
:1017200032E011B31C60939A11BB02B320E41CE0B9
:101730005F93012756E002BB279520F4515021F416
:10174000220FF9CF012756E000003B5A02BBD0F22E
:10175000279528F4515029F4220F0000F9CF0127D2
:1017600056E0279502BB20F4515021F4220FF9CF07
:10177000012756E02991332302BB21F6037F109104
:10178000B102110FC651D04002BB11F01093AA0252
:1017900010E81ABF086011B3137F402F437F5F9199
:1017A00000C000C002BB11BB42BB66CF11B887E0CE
:1017B00080B985B3836085BB86B7846086BF86B7F2
:1017C000816086BF86B7806486BF0895EF92FF92DE
:1017D0000F931F93CF93DF93182FEB0116BE84EA6C
:1017E00086BF0E9438287C0106B607FE21C081B161
:1017F000887F883021F081B1887F8031B9F513B9B5
:1018000084E886BF0E9438288C0106B607FE23C0F4
:1018100021B1287F90E080E02831B1F081E090E0B4
:10182000203411F490E080E09195819591090CC0ED
:10183000CF3FDC07C9F20E9438288E199F098C1708
:101840009D0790F28EEF9FEFDF91CF911F910F9147
:10185000FF90EF900895CF3FDC07B9F20E9438283F
:10186000801B910B8C179D0780F2ECCF8FEF9FEFC1
:10187000EBCF0F931F93CF93DF93EB0183B984E8F2
:1018800086BF0E9438288C0106B607FE10C021B121
:10189000287F81E090E0283211F490E080E091957B
:1018A00081959109DF91CF911F910F910895CF3FBD
:1018B000DC0751F30E943828801B910B8C179D0781
:1018C00018F38EEF9FEFEECFCF92DF92EF92FF9261
:1018D0000F931F93CF93DF936B018A017901B901B5
:1018E0000E94E60BE6010C0D1D1DC017D10759F42F
:1018F00024E926BFDF91CF911F910F91FF90EF90C8
:10190000DF90CF90089597FDF3CFB70189910E94A2
:10191000390CEBCF08958091500280FD0AC0E5E5B7
:10192000F2E0118210821282339682E0EB38F807DF
:10193000C1F70E94D60B24E630E046E350E065E5AF
:1019400072E080EB0C94640C8091500280FF0BC01D
:101950000E94D60B24E630E046E350E065E572E0F5
:1019600080EB0E94640C0C9471120E94391A0C9442
:101970008A0C81E0089581E008950C94BB0C1F93BC
:10198000CF93DF9300D000D00F92CDB7DEB749835D
:101990005A836B832091170189819A8121111BC081
:1019A0006623A9F00E94E525182F682F89819A8166
:1019B0000E94912569817A81812F0F900F900F905D
:1019C0000F900F90DF91CF911F910C94C40F0E9444
:1019D000BD25182FEFCF0E94E52569817A81EDCFD3
:1019E000FC01408151816281738184810C94BF0C20
:1019F0000E944E27811102C00E94EB270C94A40C78
:101A00000C94B50C08950C94020D0C94030D0895DC
:101A10000E94D1200E94070D2FEB87E299E0215010
:101A200080409040E1F700C000000C949E280F9386
:101A30001F93CF93DF938C010E94F00CEC01B8014F
:101A40000E94BD0C882309F400C1B801CE010E9498
:101A5000411B882309F4F9C0CA3C8CE5D80709F476
:101A600040C108F054C0C33CECE5DE0709F410C1E6
:101A700048F5C6318CE5D807A8F4C2309CE5D907F3
:101A800008F0A3C0C115ECE5DE0709F4D9C0C130E8
:101A9000DC4509F4E0C0C801DF91CF911F910F919F
:101AA0000C94B90CC6318CE5D80709F449C2C23C84
:101AB000DC4589F7F8018281882309F4C6C00E94B9
:101AC0001E1AC3C0C63CECE5DE0709F4F7C080F47B
:101AD000C43C8CE5D80709F4E6C0C53CDC45D9F622
:101AE000F8018281882309F4B0C00E943318ADC088
:101AF000F8018281C83CFCE5DF0709F4ECC008F47A
:101B0000E4C0882309F4A1C00E946D189EC0C13DA5
:101B1000ECE5DE0709F419C170F5CD3C8CE5D8077A
:101B200009F4EFC088F4CB3CECE5DE0709F4E1C032
:101B3000CC3CDC4509F0AFCFF8018281882309F461
:101B400084C00E94DB1681C0F8018281CF3CFCE595
:101B5000DF0709F4ECC008F4DDC0882309F475C080
:101B60000E94C216893028F00E94C2168E3008F4F6
:101B7000A2C089E0CCC0C53DECE5DE0709F408C190
:101B8000B8F4F8018281C33DFCE5DF0709F4FBC02E
:101B900008F4EBC0882309F458C00E94C2168931AA
:101BA00028F00E94C216823208F485C089E1AFC0D5
:101BB000CE3DECE5DE0709F464C008F46CCFCE013D
:101BC0008A5F9C45079708F066CFF80182818823D9
:101BD00009F461CF0E944E27811102C00E94EB27B9
:101BE0000E9461279093920280939102CF30FCE58E
:101BF000DF0709F48AC108F006C1C8309CE5D9079F
:101C000009F46FC108F0D9C0C430FCE5DF0709F45E
:101C100058C108F0C4C0C2309CE5D90709F44BC1D3
:101C2000809191028260C330DC4509F447C1809104
:101C30009102909192020E946F270E94D12005C0CC
:101C4000F801828181110E94080D80E0DF91CF911F
:101C50001F910F910895F80182818823B1F390912B
:101C6000B001892F8E7F90FF81608093B00180FF4B
:101C700005C086E393E00E94D109E7CF84E293E0B8
:101C8000FACFF8018281882301F30E94EB27DDCF90
:101C9000F80182818823C9F20E947A26827259F063
:101CA0000E946319D2CFF8018281882371F20E94C9
:101CB0007A268272A9F30E945619C7CFF801828151
:101CC000882319F20E944018C0CF882309F4BDCFA1
:101CD0000E944F18BACF882309F4B7CF0E945E182C
:101CE000B4CFF8018281882309F4AFCF0E947C1819
:101CF000ACCFF8018281882309F4A7CF0E94CA16CD
:101D0000A4CFF8018281882309F49FCF81E00E944B
:101D100066199BCF882309F498CF0E94C21682309F
:101D200020F00E94C216853030F282E0F0CF882386
:101D300009F48BCF0E94C216863028F00E94C2168A
:101D4000883008F4B8CF86E0E2CFF801828188239A
:101D500009F47BCF0E94C2168F3028F00E94C21671
:101D6000843108F4A8CF8FE0D2CF882309F46DCF57
:101D70000E94C216853128F00E94C216873108F4ED
:101D80009ACF85E1C4CF882309F45FCF88E1BFCF24
:101D9000F8018281882309F458CF83E2B8CF80917B
:101DA00091028061C630FCE5DF0709F487C008F4C2
:101DB0008CC080919102806281C0CB309CE5D907B4
:101DC00009F49BC068F4C930FCE5DF0709F48DC055
:101DD000CA30DC4509F02BCF809191028C606EC037
:101DE000809191028B7FCD309CE5D90709F466C0C4
:101DF000809191028D7FCE30DC4508F45FC08091E8
:101E00009102877F5BC0CA3FFCE5DF0709F461C030
:101E100050F5C2319CE5D90709F47FC068F4C031A0
:101E2000FCE5DF0709F475C0C131DC4509F0FFCEE0
:101E3000809191028F7B42C0C4319CE5D90709F49F
:101E400078C008F46EC0C531DC4509F0F0CE809151
:101E5000910282FB992790F921E0922790FB82F969
:101E600090FB83F92BC0CD3F8CE5D80709F449C01E
:101E700070F4CB3FECE5DE0781F1809192028E7F1A
:101E8000CC3FDC4509F0D3CE80939202D0CECF3F39
:101E90008CE5D80709F449C060F1C115DD4509F0AA
:101EA000C6CE80919202982F909591708E7F892B4B
:101EB00090FB81F9E9CF809191028160809391023A
:101EC000B6CE809191028460F9CF809191028860B2
:101ED000F5CF809192028160D7CF8091920282608B
:101EE000D3CF809191028064E9CF80919102806884
:101EF000E5CF809192028360C7CF809191028E7F5F
:101F0000DDCF809192028D7FBFCF809191028F7E35
:101F1000D5CF809191028F7DD1CF809191028F7723
:101F2000CDCF80919102837FC9CF809192028C7F27
:101F3000ABCF90919102892F97FB87F98058BECF44
:101F40000E947A26F8019281992381F08A7A91E0A1
:101F500009F490E09093CC00811106C089E20E94C0
:101F600055260E94C62671CE85E3F9CF8091CC001C
:101F7000811104C089E20E945C26F3CF85E3FBCF88
:101F800090E080E008950895972F70E02FE0929FF1
:101F9000600D711D1124FB0198E7899FE00DF11D73
:101FA0001124EE0FFF1FEC5AFF4F85919491089575
:101FB000FC01EE0FFF1FE95BFC4F859194910895A2
:101FC000CF93DF930E94C40F0E949711EC018115FB
:101FD00020E5920708F042C0811530E4930708F02D
:101FE00014C1883E910528F5803E910508F0A0C0F7
:101FF000883A910588F4853A910508F08FC08130C0
:10200000910509F495C0009709F492C0049708F06F
:102010008FC0D0E0C0E08CC08F3B910508F48CC02D
:10202000805C9109C03CD105A0F30E94D80FEC015F
:102030007FC08115904250F4C11581E0D80708F0A7
:1020400077C0C03FD10528F3D06572C0C11590E3B9
:10205000D90708F0D0C0CE019F70E7CF811525E5E4
:10206000920758F5811534E5930708F0FDC08115F6
:1020700042E5940750F4C11581E5D80708F4C8C0BB
:10208000DC2FCC27C16FD06A53C0982F96959695B8
:102090009E0123703327C115D34508F0D6C0C1E097
:1020A000D0E002C0CC0FDD1F2A95E2F720E2929F1C
:1020B000C0011124C82BD92BC6C0C11589E5D8078A
:1020C000A8F4C11598E5D90708F0D3C0C11526E5D5
:1020D000D20708F09ECF8C2F0E942E12C82FD0E07E
:1020E000DC2FCC27CC27DF71D06222C0C1153AE5A6
:1020F000D30708F4C3C0CE0190568115904208F072
:1021000088CF8D2F8F710E942E1290E0982F8827F4
:1021100088279F719C012C2BE901E6CF853A910518
:1021200009F4BAC0863A910509F0B9C0C2E8D0E412
:10213000CE01DF91CF910895883A910509F4B2C09C
:10214000893A910509F4B1C08A3A910509F4B0C001
:102150008B3A910509F4AFC08C3A910509F4AEC0F1
:102160008B3B910509F4ADC08C3B910509F4ACC0E3
:102170008D3A910509F4ABC0803B910509F4AAC0E2
:102180008E3A910509F4A9C08F3A910509F4A8C0C7
:10219000813B910509F4A7C0823B910509F4A6C0D3
:1021A000833B910509F4A5C0843B910509F4A4C0C3
:1021B000853B910509F4A3C0863B910509F4A2C0B3
:1021C000873B910509F4A1C0883B910509F4A0C0A3
:1021D000893B910509F49FC08D3B910509F49EC090
:1021E0008E3B910509F49DC08A3B910509F49CC082
:1021F000C0E0D4E49DCFCE019927D3FF03C0EC010A
:10220000D86C96CFEC01D06C93CFDF70D06A90CFB2
:10221000CE01E4E096958795EA95E1F783702C2F3F
:1022200026952695237090E2299F90011124382B42
:102230008C2F8370C1E0D0E002C0CC0FDD1F8A95E7
:10224000E2F7C22BD32BDC6873CFC1E0D0E002C031
:10225000CC0FDD1F2A95E2F730E2939FC0011124D5
:10226000C82BD92BDA6864CFD82FCC27C46FD06A9B
:102270005FCFDC2FCC27C06FD06A5ACF8C2F8F70E6
:102280000E942E1234E0D695C7953A95E1F7CF70AB
:102290009C2FEC01D0694CCFC1E8D0E449CFC3E812
:1022A000D0E446CFC2EED4E443CFC9EED4E440CF6D
:1022B000CAEED4E43DCFC5EBD4E43ACFC6EBD4E4C8
:1022C00037CFC3EBD4E434CFC4EBD4E431CFC7EB86
:1022D000D4E42ECFCCECD4E42BCFCDECD4E428CF77
:1022E000C3E8D5E425CFCAE8D5E422CFC2E9D5E4D6
:1022F0001FCFC4E9D5E41CCFC1E2D6E419CFC3E2B5
:10230000D6E416CFC4E2D6E413CFC5E2D6E410CFAC
:10231000C6E2D6E40DCFC7E2D6E40ACFCFE6D4E4D6
:1023200007CFC0E7D4E404CFCAE2D6E401CF8238B5
:102330009105B1F1B0F48133910509F475C048F409
:102340008932910509F469C08A32910509F473C094
:1023500008958533910509F459C08933910501F138
:102360000895833E9105A9F138F4803E9105F9F076
:10237000823E910549F10895863E9105A9F1873E77
:102380009105C9F1843E910519F52091920221FF32
:102390001FC08091910284FD14C087EE90E00895E3
:1023A000209191022370A1F080EE90E00895209199
:1023B000910220FD47C03091920230FF09C024FFF6
:1023C00044C090E080E004C02091910222FDF7CF4C
:1023D00008952091910222FD3BC03091920230FD80
:1023E000E3CF24FFF5CFEDCF2091910223FFF0CF73
:1023F00024FDE7CFD2CF2091910223FD2CC0309154
:10240000920231FFEECF84EE90E008952091910288
:1024100025FFDECF89E290E008952091910225FF0B
:10242000D7CF85E390E008952091910226FFD0CF89
:102430008AE290E008952091910226FFC9CF81E3BE
:1024400090E0089589E390E0089583EE90E0089588
:1024500082EE90E0089586EE90E0089590919102CA
:1024600092FF06C0282F28712830F9F4877F8460F6
:1024700093FF06C0282F28712831F1F4877E8461EC
:102480002091920220FF06C0382F38713830D9F4DD
:10249000877F816021FF06C0282F28712831D1F461
:1024A000877E816194FD877E0895282F24712430D2
:1024B000F9F68B7F8860DCCF282F2471243101F757
:1024C0008B7E8861DDCF382F3171313019F78E7FE7
:1024D0008860E0CF282F2171213121F78E7E88611D
:1024E000E1CF0895E82FF0E0EE0FFF1FE353FF4F19
:1024F000808191810895CF92DF92EF92FF920F93A6
:102500001F93CF93DF9387E593E00E94D1098DEC71
:10251000E82E80E0F82ED0E0C0E092E5C92E93E0EE
:10252000D92E09E413E0DF93CF93DF92CF920E947C
:102530006A0A8FE493E00E94D109F7018191919199
:102540007F010E9441279F938F931F930F930E94B7
:102550006A0A87E493E00E94D10921968DB79EB75D
:1025600008960FB6F8949EBF0FBE8DBFC830D10538
:10257000D1F6DF91CF911F910F91FF90EF90DF90F7
:10258000CF900895A2E9B0E061E070E08D91E82F6E
:10259000E295EF70F0E041A98F709B0101C0220F1E
:1025A0008A95EAF7922F9095942391AB82A9822B7A
:1025B00082AB80E0AA39B80749F7A3E8B0E061E050
:1025C00070E08D91E82FE295EF70F0E041A98F70F7
:1025D0009B0101C0220F8A95EAF7922F90959423D0
:1025E00091AB82A9822B82AB80E0A239B80749F770
:1025F000EDEDF0E0ADECB0E08DEE90E011921192D7
:102600001D921D928E179F07C9F788E00E94A013A4
:102610000C94F80C5F926F927F928F929F92AF9280
:10262000BF92CF92DF92EF92FF920F931F93CF93BF
:10263000DF932DED30E002E910E0512CEE24E3941D
:10264000F12CE901899099909E01DE011E921E9263
:10265000F80181918F01E82FE295EF70F0E091A9E8
:102660008F70B70101C0660F8A95EAF7892F862B14
:1026700081AB82A9662E6094862182AB88E78A9519
:10268000F1F783E8C82E80E0D82E50E040E0E60164
:1026900079906E01872D82958F7090E0EC0188A96A
:1026A000AD90BC90119790E0D72DDF7002C095954A
:1026B0008795DA95E2F780FD40C0C701042E02C07D
:1026C000880F991F0A94E2F78A299B2911969C93F7
:1026D0008E934F5F5F4F4F305105C9F681A9D62DBC
:1026E000D823D1AB82A9682B62AB81E04D915C917C
:1026F0004815590509F480E0582AE0E02D3E3E07D0
:1027000009F09FCF252D48E06DEC70E08DED90E055
:102710000E94A1130E94000D852DDF91CF911F9182
:102720000F91FF90EF90DF90CF90BF90AF909F9070
:102730008F907F906F905F90089590E080E0C4CF7D
:102740000895FF920F931F93CF93DF93F82E092FD5
:10275000162FD72FC42F222349F081E08093EF005A
:102760000E9438289093EE008093ED008091EF0056
:102770008823A1F08091ED009091EE000E945028F6
:10278000069760F0EF2DF02FA12FBD2F90E080E095
:10279000D0E08C179D0744F01092EF00DF91CF91AD
:1027A0001F910F91FF900895219131912D933D93A9
:1027B0000196EFCFAF92BF92CF92DF92FF920F932D
:1027C0001F93CF93DF93362F472FE82FF0E0ED597B
:1027D000F84F71110DC06491762F862FDF91CF9144
:1027E0001F910F91FF90DF90CF90BF90AF90089511
:1027F000C72FD0E02491F22E022F10E056E0659F03
:10280000C0011124EFEFF0E0BF010E942734832FB5
:1028100090E0880F991F35E5369FD001379FB00DA6
:1028200011248A1B9B0B982F990F980F6F01CC1ABC
:10283000DD0AC09ED001C19EB00DD09EB00D112406
:102840008B2F949FA0011124452F55276F01C41A87
:10285000D50AC09EA001C19E500DD09E500D1124DE
:102860005F01A91AB108AC9E6001AD9ED00CBC9E60
:10287000D00C1124CD2CDD24EC19FD09E09FE001E2
:10288000E19FD00DF09FD00D1124ED2F6230710526
:10289000A1F048F46115710569F06130710589F0A6
:1028A000EB2F852F07C06430710571F088F066301A
:1028B0007105B1F76E2F722F91CFE22F2B2F8D2F35
:1028C000F9CFE22F252FF6CFEB2F822F2D2FF2CF2E
:1028D0002B2F8F2DE52FEECF0895CF93DF93762FFB
:1028E000E901682F842F0E94DA13798368838A8331
:1028F000DF91CF9108950F931F93CF93DF93EC0156
:1029000010E000E0909162009017110609F06CF45D
:102910000E948B0C8C8190E00196817099278C83AA
:10292000DF91CF911F910F9108952091F300A8019D
:10293000420F511D9A01220F331F240F351F2B5AAE
:102940003D4F4C81609152028091510296959017B3
:10295000110651F04CF0442349F0409153020E947B
:102960006D140F5F1F4FCECF4423B9F340E0F7CF74
:102970000F931F93CF93DF938C01FC01848195818A
:1029800001968170992795838483C0E0D5E5809175
:102990006200C81730F0DF91CF911F910F910C9416
:1029A0008B0C2091F300422F4C0F5527551FCA0165
:1029B0009A01220F331F280F391F2B5A3D4F8C2F9E
:1029C0008695F80144815581840F952F911D817062
:1029D00040915302609152028D9F802D11240E94DC
:1029E0006D14CF5FD4CF0F931F93CF93DF9380915C
:1029F000F3009091630023E0829FF0011124EB5AD1
:102A0000FD4F891740F1C0E0D3E060916200C61726
:102A100040F10E948B0C209160008091F100820FA8
:102A20008093F10090916100920F909361001916CC
:102A300054F4082E000C990B409162004150550B44
:102A4000841795071CF0219520936000DF91CF91AA
:102A50001F910F9108951182108212828F5F339619
:102A6000D0CF0C2F10E0C801089670E00E943B34D4
:102A70002091F300820F482F50E02091F100022EA8
:102A8000000C330B02171307BCF020916100022EDB
:102A9000000C330B201731077CF08D9F900111241F
:102AA0002B5A3D4F40915302609152028091510246
:102AB0000E946D14CF5FA9CFFA01EE0FFF1FE40F44
:102AC000F51FEB5AFD4F118210821282F3CFBF9295
:102AD000CF92DF92EF92FF920F931F93CF93DF93EA
:102AE000FC0182810FEF80FF01E010E08091620025
:102AF0001817C0F00E948B0C8091F200013009F091
:102B00004DC0811102C08091620081508093F2001B
:102B1000DF91CF911F910F91FF90EF90DF90CF90B9
:102B2000BF900895C091F300C12ED12CCC0DDD2DA6
:102B3000D11DCE01880F991FC80FD91FCB5ADD4F69
:102B4000198218821A8234E0E32EF12CB12C809184
:102B5000F2008B0D87FF03C090916200890F082E51
:102B6000000C990BC816D90691F4809153028E9DE2
:102B7000A0018F9D500D112455954795559547956A
:102B80009E0160915202809151020E946D14B00E1C
:102B9000F1E0EF1AF108D9F61F5FA8CF90E0019697
:102BA0006091620070E00E943B34B0CFEF92FF92E0
:102BB0001F93CF93DF93EC0110E0EE24EA94F12C05
:102BC00060916200161770F00E948B0C9A818C81C4
:102BD00090FF27C08F5F8C83DF91CF911F91FF9073
:102BE000EF9008952091F300422F410F5527551F74
:102BF000CA019A01220F331F280F391F2B5A3D4F4C
:102C000070E0C7010E943B34962F8C8140915302A3
:102C100060915202199F800D11240E946D141F5F54
:102C2000CFCF8150D8CF80915002982F9E7F29F42A
:102C3000817082608093500208958A34E8F3817035
:102C40008864F8CF88E090E00C946A34CF92DF92E9
:102C5000EF92FF926B017C010E941316B701A6014F
:102C600088E090E0FF90EF90DF90CF900C94873455
:102C7000E0E5F2E083E0808311828FEF828383833B
:102C8000148260817181828193810C9426168091D7
:102C9000B00180FF76C083E396E09F938F930E94FC
:102CA0006A0A8091B0010F900F9080FF6AC08091F6
:102CB000500281701F928F9386E196E09F938F93CD
:102CC0000E946A0A8091B0010F900F900F900F90B0
:102CD00080FF57C08091500286951F928F938BEF93
:102CE00095E09F938F930E946A0A8091B0010F90A4
:102CF0000F900F900F9080FF44C0809151021F925F
:102D00008F9381EE95E09F938F930E946A0A809142
:102D1000B0010F900F900F900F9080FF32C0809104
:102D200052021F928F9387EC95E09F938F930E949E
:102D30006A0A8091B0010F900F900F900F9080FF62
:102D400020C0809153021F928F938DEA95E09F934C
:102D50008F930E946A0A8091B0010F900F900F909C
:102D60000F9080FF0EC0809154021F928F9381E9D3
:102D700095E09F938F930E946A0A0F900F900F9097
:102D80000F9008958091500280FF02C086950895AB
:102D900080E0089580915402833018F48F5F80930F
:102DA00054026091500270915102809152029091B0
:102DB00053020C94261680915402882319F08150F6
:102DC000809354026091500270915102809152029E
:102DD000909153020C9426169091500290FF14C0CB
:102DE0009091F3002091630033E0939FF001112450
:102DF000EB5AFD4F921710F00C948B0C818360837B
:102E000042839F5F3396F6CF0895CF93DF9300D030
:102E10000F92CDB7DEB79091500290FF0AC09E018D
:102E20002F5F3F4F0E946D144B8169818A810E9400
:102E3000EC160F900F900F90DF91CF910895CF93E4
:102E4000DF93EC01EC81F0E0E25AF94F4491E0E5C8
:102E5000F2E0628181810E9405178C818F5F8C83F3
:102E6000DF91CF910895CF93DF93EC01E0E5F2E09D
:102E7000438162818C810E9405178C818F5F8C83D6
:102E8000DF91CF9108954F925F926F927F928F92D0
:102E90009F92AF92BF92CF92DF92EF92FF920F93E9
:102EA0001F93CF93DF9300D00F92CDB7DEB7182FCB
:102EB000D62E042F722E9091500290FF46C0E92F1B
:102EC000E695AE2FB0E0A656BF4F8C918093FB00E5
:102ED0009E7F923009F04DC09E012F5F3F4F812FA2
:102EE0000E946D144B8169818A810E94EC161093B7
:102EF0005102D092520200935302772009F49CC0F1
:102F0000609150027091510280915202909153024F
:102F10000E9426168091B00180FF17C08091530255
:102F20001F928F93809152021F928F938091510232
:102F30001F928F9387EC93E09F938F930E946A0A6E
:102F40000FB6F894DEBF0FBECDBF0F900F900F905D
:102F5000DF91CF911F910F91FF90EF90DF90CF9075
:102F6000BF90AF909F908F907F906F905F904F90A9
:102F70000895823019F400915302B9CF863019F4C4
:102F800010915102B4CF8930D9F3893109F0AFCF14
:102F9000E9518E2F8170682E8E2F80958170C82EFA
:102FA000E695F0E0E25AF84FE590F490412CFF24CA
:102FB0009CEEA92E93E0B92E60916200461618F09F
:102FC0000E948B0C94CF842C912C8E9CC0018F9CE2
:102FD000900D9E9C900D112470E00E942734512E7C
:102FE000611028C0560E8091B00180FF11C0FF9281
:102FF000EF921F92CF921F925F921F924F92BF92B9
:10300000AF920E946A0A0FB6F894DEBF0FBECDBF22
:103010002091F300820E911C9401220F331F280D82
:10302000391D2B5A3D4F402F6D2D852D0E946D145B
:103030004394C2CF561AD7CF8091B00180FF85CF7D
:103040001F920F931F92DF921F921F9380EA93E0CB
:1030500073CFE0E5F2E09181282F4381628188E01F
:10306000890F0C94431781E00C942918E0E5F2E0F5
:103070009181282F4381628188EF890F0C94431737
:1030800081E00C943618E0E5F2E0628128E0620FFE
:1030900008F46FEF282F438181810C94431781E05E
:1030A0000C944318E0E5F2E0628128E0621B08F42A
:1030B00060E0282F438181810C94431781E00C94B8
:1030C0005218E0E5F2E0438128E0420F08F44FEFA8
:1030D000282F628181810C94431781E00C94611840
:1030E000E0E5F2E0438128E0421B08F440E0282FAD
:1030F000628181810C94431781E00C94701820E068
:103100000C9443170F931F93CF93DF9300D00F922C
:10311000CDB7DEB78C018091F00081110AC09E010D
:103120002F5F3F4F4FEF6FEF0E946D148A818093A6
:10313000F000F8016481613069F08091F00040E0B6
:10314000662361F040E0623011F44091F00080E0CD
:1031500060E004C06091F00040E080E00E94EC1666
:10316000F801848190E0019663E070E00E943B34B6
:1031700084830F900F900F90DF91CF911F910F914B
:10318000089560915002669570E04BE050E084E64F
:1031900090E00E945534892B19F481E08093FC0063
:1031A0000E9438289093F5008093F4008091B0013C
:1031B00080FF08C087E893E09F938F930E946A0A7C
:1031C0000F900F9008951092FC008091B00180FF45
:1031D00008C08EE693E09F938F930E946A0A0F9037
:1031E0000F9008959091500290FF54C091708111FA
:1031F0003BC09260909350026623E9F160915002C7
:103200007091510280915202909153020E942616B1
:103210008091B00180FF0FC08091500286951F926F
:103220008F9387ED94E09F938F930E946A0A0F908B
:103230000F900F900F9060915002669570E04BE0F8
:1032400050E084E690E00E945534892B01F10E9401
:10325000E31881E08093F70040915302609152029D
:10326000809151020C947F18853210F09864C2CF7F
:10327000880F982BBFCF8091B00180FFDCCF809169
:10328000500286951F928F9389EB94E0CCCF0E94D9
:10329000C118DFCF0895682F90915002969581E074
:1032A000890F853208F081E00C94F21881E00C94CB
:1032B0004B19682F9091500296958FEF890F09F462
:1032C00084E20C94F21881E00C94591961E00C949A
:1032D000F218809150028160809350028091B00179
:1032E00080FF0DC01F9281E08F938BE494E09F9349
:1032F0008F930E946A0A0F900F900F900F90809109
:10330000500286950C94661960E00C94F218809136
:10331000FA00811163C08091B00181608093B00197
:1033200080FF14C08AE795E09F938F930E946A0AFA
:103330008091B0010F900F9080FF08C084E695E067
:103340009F938F930E946A0A0F900F900E944E27BE
:10335000811110C08091B00180FF08C08CE395E01E
:103360009F938F930E946A0A0F900F900E94EB2701
:103370000E9438160E9422166093500270935102E8
:1033800080935202909353026E7FC1F48091B001FA
:1033900080FF08C083EF94E09F938F930E946A0A96
:1033A0000F900F900E9438160E94221660935002D0
:1033B0007093510280935202909353020E9413160D
:1033C0000E9447161092FC008091500280FF03C0BB
:1033D00086950E94841981E08093FA000895809177
:1033E00050028E7F80935002609150027091510282
:1033F00080915202909153020E9426168091B00152
:1034000080FF0FC08091500281701F928F9383E1E3
:1034100094E09F938F930E946A0A0F900F900F90F1
:103420000F900E94E3182FEB84ED91E02150804033
:103430009040E1F700C000000C948B0C8091B0012B
:1034400080FF10C080915002809581701F928F93F1
:1034500082E894E09F938F930E946A0A0F900F90E6
:103460000F900F908091500280FD0C94EF190C94F6
:1034700069190F931F93CF93DF938091FC008823EA
:1034800009F48DC08091FB00E0915002E695E81BA5
:10349000E093F6008230C9F5F0E0E65AF94FE49186
:1034A000CE2FD0E00FE117E18091F700882389F05B
:1034B0001092F7000E9438289E0120953095820FC7
:1034C000931F9093F5008093F4001092F9001092EE
:1034D000F8008091F4009091F5000E9450288C171C
:1034E0009D0708F45CC0E091F400F091F500CE0F68
:1034F000DF1FD093F500C093F40084EF90E0F80153
:10350000DF91CF911F910F910994863049F4F0E03B
:10351000E95AF94FE491CE2FD0E003E317E1C4CF8D
:10352000893051F4E695F0E0EC5AF94FE491CE2F52
:10353000D0E006ED15E1B8CF8F3051F4E695F0E01C
:10354000EF5AF94FE491CE2FD0E007E615E1ACCF6A
:10355000853149F4F0E0E25BF94FE491CE2FD0E001
:1035600003EF14E1A1CFC8EED3E008EB14E18831FA
:1035700009F49ACF833239F4ECE4F6E0C591D491A2
:1035800002E818E191CFC4EFD1E00BE714E18432F7
:1035900009F48ACFC0EDD7E00CE614E185CFDF91C6
:1035A000CF911F910F9108950F931F93CF93DF93A6
:1035B000C62FD42F022FFC0182818823C9F060938B
:1035C000FF000E9438289093FE008093FD0080E267
:1035D0008C0F883008F050C0C77081E001C0880FA0
:1035E000CA95EAF7DF91CF911F910F910C94371E86
:1035F0001091FF00161335C08091FD009091FE00E0
:103600000E945028883C910560F5C0E2CD0F1D173F
:10361000B9F080E2810F883040F4177081E001C07A
:10362000880F1A95EAF70E943E1EC83048F481E0E0
:103630009D2F977001C0880F9A95EAF70E94371E58
:10364000802F0E94241EC830B8F4D77081E001C0DA
:10365000880FDA95EAF7DF91CF911F910F910C94C3
:103660003E1E80E28C0F883038F4C77081E001C0C4
:10367000880FCA95EAF7EFCFDF91CF911F910F9195
:1036800008959C01CB01233F4CE5340731F190F4C0
:10369000283DFCE53F07E9F0293D4CE5340769F199
:1036A000273D3C4579F426E241EE61EE0E94D41AB2
:1036B00080E00895253FFCE53F07B9F090F0263FF4
:1036C0003C45B9F0FC0182818823D1F01092FF00C3
:1036D000089527E245EE65EEE9CF26E241EE60EE81
:1036E000E5CF27E245EE64EEE1CF26E241EE62EE61
:1036F000DDCF27E245EE66EED9CF28E241E0EBCF01
:1037000081E0089590930501809304010895E0916C
:103710000401F0910501309721F00190F081E02D36
:10372000099480E00895EF92FF920F931F93CF9337
:10373000DF938C01E0910401F09105013097C1F114
:103740000280F381E02D09958091B00182FF30C0A5
:1037500080FF04C08BE698E00E94D109D0E0C0E071
:1037600085E6E82E88E0F82E8091B00180FF0EC03B
:10377000F801EC0FFD1F80811F928F93FF92EF9253
:103780000E946A0A0F900F900F900F902196C830F8
:10379000D10551F78091B00180FF0AC083E698E01F
:1037A000DF91CF911F910F91FF90EF900C94D10971
:1037B000DF91CF911F910F91FF90EF900895E091CD
:1037C0000401F0910501309721F00480F581E02D8E
:1037D00009940895209102013091030128173907B7
:1037E00071F09093030180930201E0910401F09144
:1037F0000501309721F00680F781E02D09940895A6
:1038000020910001309101012817390771F0909340
:10381000010180930001E0910401F09105013097CE
:1038200021F00084F185E02D0994089584B7806823
:1038300084BF84B7806884BF0895089508950C9468
:103840001D1C08950C94211C0E94161C0E941E1C15
:103850000C941F1C81E008950E9431280E94C2121E
:103860000E94B7280E9487190C94221CCF93C82F5E
:103870008091B00182FF1EC080FF1CC084E898E0E8
:103880000E94D1098091B00180FF14C01F92CF9394
:103890008FE798E09F938F930E946A0A8091B0010E
:1038A0000F900F900F900F9080FF04C08DE798E06D
:1038B0000E94D1098C2FCF910C94050D5F926F92CD
:1038C0007F928F929F92AF92BF92CF92DF92EF92B0
:1038D000FF920F931F93CF93DF93CDB7DEB72A9755
:1038E0000FB6F894DEBF0FBECDBF0E940A130E9430
:1038F0002A1C882309F47AC097E0A92E91E0B92EFA
:1039000010E000E088248394912C502E802F0E9498
:1039100072127C01F501C190D1905F01C816D906E1
:1039200009F45EC08091B00181FD0E947B1290E09D
:1039300080E0CE24DF243401082E02C0660C771C00
:103940000A94E2F7960126213721232B09F443C07C
:103950008E835F82E620F72081E0EF2809F480E083
:1039600088870E9438288160782F9A8789874E81BE
:103970005F8168858A850E941D1D000F111FF80157
:10398000E95FFE4F8081918168267926718260828D
:103990000E94C62A0E94871B909106018917B9F1DF
:1039A0000E94871B809306012A960FB6F894DEBF0B
:1039B0000FBECDBFDF91CF911F910F91FF90EF9080
:1039C000DF90CF90BF90AF909F908F907F906F903F
:1039D0005F900C94361C01968F30910509F0ABCFA7
:1039E0000F5F1F4F0830110509F08FCF8FEF8983CC
:1039F0008A831B820E9438288160782F9D838C8364
:103A000049815A816B818D810E941D1DC1CF2A96EB
:103A10000FB6F894DEBF0FBECDBFDF91CF911F91DF
:103A20000F91FF90EF90DF90CF90BF90AF909F905D
:103A30008F907F906F905F900895CF93DF93CDB775
:103A4000DEB72B970FB6F894DEBF0FBECDBF4F8306
:103A5000588769877A878B871E821D8285E0FE01E1
:103A60003796DE01119601900D928A95E1F7498112
:103A70005A816B817C818D819E812B960FB6F89443
:103A8000DEBF0FBECDBFDF91CF910C947123FC013F
:103A9000808191810C942726CF93C82F882309F425
:103AA000A2C08CEF8C0F813A58F48C2F0E942B2FE0
:103AB000811199C08C2F0E945526CF910C94C62657
:103AC00080E28C0F883048F4C77081E001C0880F15
:103AD000CA95EAF70E947D26F0CF8BE58C0F8330E4
:103AE00068F481E890E0C53A31F083E890E0C63AA6
:103AF00011F482E890E0CF910C94EA1B88E58C0FDA
:103B0000873108F068C082EE90E0C83A09F460C0DE
:103B100089EE90E0C93A09F45BC08AEE90E0CA3AB7
:103B200009F456C085EB90E0CB3A09F451C086EB1E
:103B300090E0CC3A09F44CC083EB90E0CB3B09F425
:103B400047C084EB90E0CC3B09F442C087EB90E0A7
:103B5000CD3AF1F18CEC90E0C03BD1F18DEC90E0EE
:103B6000CE3AB1F183E891E0CF3A91F18AE891E061
:103B7000C13B71F182E991E0C23B51F184E991E0EE
:103B8000C33B31F181E292E0C43B11F183E292E068
:103B9000C53BF1F084E292E0C63BD1F085E292E0D1
:103BA000C73BB1F086E292E0C83B91F087E292E039
:103BB000C93B71F08FE690E0CD3B51F080E790E09B
:103BC000CE3B31F090E080E0CA3B11F48AE292E013
:103BD000CF910C94001CC03F30F08C2F0E945229D2
:103BE000CF910C94392ACF910895882361F19CEFED
:103BF000980F913A20F40E945C260C94C62690E21D
:103C0000980F983050F4877091E001C0990F8A9511
:103C1000EAF7892F0E948326F0CF9BE5980F933017
:103C200020F490E080E00C94EA1B98E5980F97311F
:103C300020F490E080E00C94001C803F20F00E9473
:103C4000BA290C94392A0895CF93C82F0E944C1D8D
:103C5000C93349F42FEF8DEE92E02150804090401F
:103C6000E1F700C000008C2FCF910C94F51D882344
:103C700021F00E947D260C94C6260895882321F009
:103C80000E9483260C94C6260895BF92CF92DF929D
:103C9000EF92FF920F931F93CF93DF936C01D62F78
:103CA000C72FFC01058102950F70128111110E942E
:103CB0009A260E947326E82E882371F01123B1F012
:103CC00080E28D0F883090F082E00E9411270E94E0
:103CD000732691E0E82EE926BC2EB2949FE0B9222B
:103CE000EB2DF0E0E854FB4C0C944F34E12CF4CF76
:103CF0000C2F0F70C07F11F00295007F1123A9F0E7
:103D0000002359F080E28D0F883010F0D11109C0E6
:103D1000802F0E947D260E94C6268D2F0E944C1D5A
:103D200014C0802F0E948D26F6CF8D2F0E94F51D86
:103D3000002359F080E28D0F883010F0D1112CC093
:103D4000802F0E9483260E94C6262B2D2850330BDD
:103D50002430310520F40E94871B0E94050DEE20BF
:103D600009F4D5C10E946F2680FDD1C1F6011282EF
:103D70000E9469260E94F524C6010E9491200E949B
:103D80006926DF91CF911F910F91FF90EF90DF9007
:103D9000CF90BF900C941625802F0E949326D3CFEE
:103DA000FC2FFF70FF2EC07FC03219F0F29480EF1D
:103DB000F822DD2369F0D13049F1112391F100237C
:103DC00051F1F601858180FFA8CF8F70858323C0D4
:103DD000112381F0011106C00E94AD268F290E9497
:103DE000371EB3CF0130C1F70E94AD268F290E9444
:103DF000B326ABCF011106C00E94BC268F2D0E94B6
:103E00003E1EA3CF013009F4A0CFF6CF112329F035
:103E1000063008F09ACF8F2DE2CF053008F095CF0D
:103E2000EDCF002359F3D93349F4FFEF2DEE32E003
:103E3000F15020403040E1F700C000008D2F0E947B
:103E4000F51D83CF8C2F86958695837069F0813020
:103E500009F07BCF8D2F9C2F9370111102C090E041
:103E600080E00E94001C71CF8D2F9C2F9370111148
:103E700002C090E080E00E94EA1B67CF112309F1A5
:103E8000D53F99F0D63FB9F0D43F49F480918B02E9
:103E900090918C02816090938C0280938B028D2F85
:103EA0000E9452290E94392A50CF80918B02909112
:103EB0008C028260F0CF80918B0290918C028460A2
:103EC000EACFD53F89F0D63FA9F0D43F49F480919D
:103ED0008B0290918C028E7F90938C0280938B0248
:103EE0008D2F0E94BA29DECF80918B0290918C0297
:103EF0008D7FF2CF80918B0290918C028B7FECCFE3
:103F00008C2F837009F041C011111FCF4D2F4295A6
:103F100046954770440F440F0D2F0F7010E030E0AE
:103F200020E0042E04C0000F111F221F331F0A942B
:103F3000D2F760E070E0CB01D4FF0FC06FE070E01B
:103F400080E090E004C0660F771F881F991F4A9594
:103F5000D2F76095709580959095C695C695C3707B
:103F6000602B712B822B932BC23049F058F4C13057
:103F700019F00E94A724E9CE0E949524E6CE0E9463
:103F8000B924E3CE0E949324E0CE8695112311F04C
:103F90008C2F8170882309F4D8CE4D2F42954695F9
:103FA0004770440F440F0D2F0F7010E030E020E0F9
:103FB000042E04C0000F111F221F331F0A94D2F7D2
:103FC00060E070E0CB01D4FF0FC06FE070E080E0F4
:103FD00090E004C0660F771F881F991F4A95D2F79B
:103FE0006095709580959095C695C695C370602B29
:103FF000712B822B932BC23049F058F4C13019F049
:104000000E946C25A2CE0E945A259FCE0E947E253A
:104010009CCE0E94CF2499CECF70112329F08C2FF3
:104020000E94F5248D2FDBCE8D2F0E943E1E8C2FFB
:104030000E9416258ACED23F89F160F4D03FC9F0A4
:10404000D13F29F1112309F442C0011166CE8C2F12
:104050008F7121C0D33F39F1D43FA1F7112369F10A
:10406000CF718C2F0E94F52463E08C2F0E94FC26D8
:104070006CCE112341F0053008F067CE8C2F8F7184
:104080000E94392562CE063008F05FCEF7CF8C2F24
:104090008F71112369F20E94F52457CE8C2F8F71F6
:1040A0001123C9F3C5CF112329F08C2F8F710E94E2
:1040B000E0244BCE0E94DB2448CE81E00E941127F1
:1040C000023008F442CE82E00E9411273ECE002347
:1040D00059F0D93309F0B2CE8FEF9DEEE2E0815076
:1040E0009040E040E1F7A8CE8C2F8F71A1CF4C2FEC
:1040F0004F706D2FC6010E94C00F0E940B2425CE69
:104100004C2F4F706D2FC6010E94C30F1ECEDF9142
:10411000CF911F910F91FF90EF90DF90CF90BF90C4
:1041200008950F931F93CF93DF93EC018B819C81B4
:10413000892B29F08881998189238F3F29F4DF9188
:10414000CF911F910F910895CE010E94170D8823E2
:10415000B1F3688179818A810E9431268C010E94A5
:1041600090250E949224B801CE01DF91CF911F913A
:104170000F910C94451E0E949A260E94AA260E9426
:10418000C6260E945D2B0E94392A90E080E00E94A2
:10419000EA1B90E080E00C94001C0E9463260C94C3
:1041A000BB200E948A260C94CD20E92FE295EF7067
:1041B000E250EE3070F4F0E0E853FB4C0C944F34D6
:1041C000803F19F020F4883E20F481E00895843F78
:1041D000E1F380E00895883EC0F3813FD1F7F5CF49
:1041E00093FB882780F908950E9427260C94D520F8
:1041F000CF93DF9300D000D00F92CDB7DEB70F90F2
:104200000F900F900F900F90DF91CF910895CF9363
:10421000DF9300D000D000D0CDB7DEB726960FB622
:10422000F894DEBF0FBECDBFDF91CF9108951F93ED
:10423000CF93DF93C091180116E0809119018C1380
:1042400004C0DF91CF911F910895D0E01C9FF00131
:104250001D9FF00D1124E65EFE4F40815181628169
:104260007381848195810E9407212196C770E5CFD3
:1042700040914A0150914B0160914C0170914D0168
:1042800080914E0190914F010C9407211F93CF9381
:10429000DF9380914F01807FC1F480914C0188238E
:1042A000A1F080911801C091190160914A017091AB
:1042B0004B0140914D0150914E01D62FD723DA0189
:1042C000A095B09516E0C81304C0DF91CF911F915F
:1042D000089590E04115510511F0DF3F31F401964A
:1042E0008770F1CF2A0F3B1F17C0189FF001199F4D
:1042F000F00D1124E65EFE4F21812713F0CF2081BF
:104300002613EDCF22812111EACF23813481241796
:10431000350740F3241B350B283C310500F720916D
:104320004F012F70206120934F0126E0289FF0015C
:10433000299FF00D1124E15EFE4F80818F70806116
:1043400080838AE491E00E949120DF91CF911F91B8
:104350000C941721BF92CF92DF92EF92FF920F93AE
:104360001F93CF93DF93CDB7DEB761970FB6F89465
:10437000DEBF0FBECDBF8C0185E0F801DE011D96CA
:1043800001900D928A95E1F7D8014C9111965C91BC
:1043900011971296EC90129780914D0190914E01D9
:1043A000009709F47FC120914A0130914B01622F9F
:1043B00063236F3F09F476C11396CD90DC90B090E3
:1043C0004C01BB2009F411C1C816D906D0F1F60181
:1043D000E81BF90BCF01FF24F394883C910508F00A
:1043E000F12C80914F01982F907FFF2009F4B8C0E5
:1043F00091117FC0FE2C351329C0241327C0E11072
:1044000025C08F70806180934F010E9438218AE41B
:1044100091E00E94912080914F01D80115968C93D4
:104420008F2D61960FB6F894DEBF0FBECDBFDF9122
:10443000CF911F910F91FF90EF90DF90CF90BF90A1
:104440000895809590958C0D9D1DC5CFCD2829F0A0
:10445000852F84238F3F09F041C180E0B82FB170D0
:10446000DB2E80FF3CC0809118012091190136E0BD
:10447000821315C04D875E878D859E850E942726F5
:10448000292F22952F702230F0F0243018F59F70DC
:10449000F1F0F8019581907FD1F4D12C1EC090E00D
:1044A000389FF001399FF00D1124E65EFE4F6181C7
:1044B000651306C06081641303C06281E6120FC0F9
:1044C00001968770D5CF9F7011F0882331F3805EFD
:1044D000883018F3C8010E949120FD2CA1CFEE2056
:1044E00009F49ECF80914F01816080934F01F12CA0
:1044F00097CF351306C0241304C0D801EE2009F469
:104500009AC04D875E878D859E850E94F420882302
:1045100019F1EE2009F180914F01803270F0209165
:104520004A0130914B0138872F831986DB86CA8672
:104530008C87CE0107960E94912086E0F801AAE4BC
:10454000B1E001900D928A95E1F70E9446210E9408
:104550003821FF24F39464CFC8010E949120F9CF41
:10456000911113C07C2DD98AC88A6E2D89890E9429
:10457000F8208AE491E00E94912086E0EAE4F1E0EC
:10458000DF011D928A95E9F763C0351312C0241329
:1045900010C0E1100EC0F8018583C8010E9491206F
:1045A000EAE4F1E086E0DF011D928A95E9F7FB2C51
:1045B00037CF4D875E878D859E850E94F4208823A6
:1045C00059F2EE2049F280914F01803208F4B5CFC4
:1045D00020914A0130914B013A8329831B82DD826D
:1045E000CC828E83CE010196A6CFC816D90698F14B
:1045F000F601E81BF90BCF01F12C883C910508F07E
:1046000049C0FE2CEE2009F4A7CF351332C0241385
:1046100030C080914F0180FD23C0982F907F01F121
:10462000D80115968C931597903F39F0982F907F6D
:10463000905F8F70892B15968C93C8010E949120F2
:1046400086E0F801AAE4B1E001900D928A95E1F7C5
:104650000E943821E5CE809590958C0D9D1DCCCF84
:1046600086E0F801AAE4B1E001900D928A95E1F7A5
:10467000D7CE4D875E878D859E850E94F42081115F
:104680005CCF80914F01816080934F01C8010E94EF
:104690009120C6CE7C2DD98AC88A6E2D89890E9428
:1046A000F8206BCFEE2009F457CF4D875E878D85BC
:1046B0009E850E94F420F82E882309F44DCF86E0D1
:1046C000F801AAE4B1E001900D928A95E1F78AE43D
:1046D00091E00E94471D0E944621BACF81E08E25BD
:1046E000BDCE1F93CF93DF93CDB7DEB72C970FB618
:1046F000F894DEBF0FBECDBF4F83588769877A8796
:104700008B879C87CE0107960E94AA21882369F097
:104710008A859B85892B39F04F815885842F852385
:104720008F3F09F071C016E05FC086E0FE0137964A
:10473000DE01119601900D928A95E1F78A859B859D
:10474000892B89F388859F8189238F3F61F320918D
:10475000190130E0C901019687709927409118012D
:104760004817190671F40E94D12010921901109275
:10477000180186E0EAE4F1E0DF011D928A95E9F78D
:10478000D2CF96E0929FD001939FB00D1124A65EE8
:10479000BE4FFE01319601900D929A95E1F78093FC
:1047A00019010E941721BFCF819FC0011124865E8D
:1047B0009E4F0E94AA218823E9F0E09118011E9FD4
:1047C000F0011124E65EFE4F4081518162817381C8
:1047D000848195810E9407218091180190E00196C3
:1047E0008770992780931801809118019091190181
:1047F0008913DACF2C960FB6F894DEBF0FBECDBF6B
:10480000DF91CF911F91089569857A858B859C856D
:104810000E94072188CFEF92FF920F931F93CF93AF
:10482000DF938C01892B81F0F12CEE24E394E801D5
:104830002196F8018491843770F4843008F05FC0C9
:104840008130B1F08230A1F1DF91CF911F910F91B2
:10485000FF90EF900895853709F44CC008F43DC0EF
:104860009CE7980F903780F78F770E94F51D49C01D
:104870000E5F1F4FFE01849190E2980F983060F414
:104880008770FE2D01C0FF0F8A95EAF78F2F0E94D7
:104890009D260E94C62602C00E944C1D8F2D81506D
:1048A00030F2E7EBFBE03197F1F700C00000F7CF03
:1048B0000E5F1F4FFE01849190E2980F983050F4E4
:1048C0008770FE2D01C0FF0F8A95EAF78F2F0E9497
:1048D000A326DFCF0E94F51DE1CF0E5F1F4FFE0123
:1048E000C491C150D8F287EB9BE00197F1F700C06B
:1048F0000000F7CF0E5F1F4FFE01F490CFCF0E9454
:104900004C1D8E01CBCF08950C9483240E948424E7
:1049100060939F017093A0018093A1019093A201E5
:104920000C94BB2008950C9486240F931F93009140
:104930009F011091A0012091A1013091A201602B53
:10494000712B822B932B1F910F910C9486240F9324
:104950001F9300919F011091A0012091A10130911E
:10496000A20160237123822393231F910F910C9442
:1049700086240F931F9300919F011091A001209115
:10498000A1013091A20160277127822793271F91EF
:104990000F910C9486240C9483240C94CB240E94B5
:1049A000CD2460939B0170939C0180939D01909313
:1049B0009E010C94BB2060E070E0CB010C94CF24EE
:1049C0000F931F9341E050E060E070E08A019B018B
:1049D00004C0000F111F221F331F8A95D2F7C9018F
:1049E000B8011F910F910C94CF240F931F9341E0B6
:1049F00050E060E070E004C0440F551F661F771F51
:104A00008A95D2F780919B0190919C01A0919D0184
:104A1000B0919E018A019B01082B192B2A2B3B2B5D
:104A2000C901B8011F910F910C94CF240F931F93CC
:104A300041E050E060E070E004C0440F551F661F85
:104A4000771F8A95D2F7CB01BA0160957095809552
:104A5000909500919B0110919C0120919D013091B6
:104A60009E0160237123822393231F910F910C9445
:104A7000CF240F931F9341E050E060E070E004C04A
:104A8000440F551F661F771F8A95D2F780919B01AF
:104A900090919C01A0919D01B0919E018A019B0182
:104AA000082719272A273B27C901B8011F910F9111
:104AB0000C94CF240F931F9300919B0110919C01A4
:104AC00020919D0130919E01602B712B822B932BA5
:104AD0001F910F910C94CF240F931F9300919B0172
:104AE00010919C0120919D0130919E0160237123C2
:104AF000822393231F910F910C94CF240F931F9324
:104B000000919B0110919C0120919D0130919E018B
:104B100060277127822793271F910F910C94CF2430
:104B200008952FE0929F800D1124982F977041E0F7
:104B300001C0440F9A95EAF786958695869595E08B
:104B4000899FF0011124E05BFE4F90E080E070E06F
:104B50005191DF0111979B01082E02C036952795D0
:104B60000A94E2F7217021952527242325272C93E9
:104B700001968530910561F708952FE0929F800D91
:104B80001124982F977086958695869525E0829FAB
:104B9000F0011124E05BFE4F50E040E080E0219105
:104BA00030E0092E02C0369527950A94E2F721706D
:104BB0003327042E01C0220F0A94EAF7822B4F5F9D
:104BC0005F4F4530510559F70895BF92CF92DF925C
:104BD000EF92FF920F931F93CF93DF938C01C090BE
:104BE0009B01D0909C01E0909D01F0909E018091EE
:104BF0009F019091A001A091A101B091A201C82AAA
:104C0000D92AEA2AFB2ACFE1D0E0BC2ED701C6017F
:104C10000C2E04C0B695A795979587950A94D2F760
:104C200080FD0EC0219788F7B12C8B2DDF91CF919D
:104C30001F910F91FF90EF90DF90CF90BF9008955C
:104C4000B8018C2F0E94E00F019761F3EECFCF9354
:104C5000DF93EC010E94E525BE01DF91CF910C941A
:104C6000E00F1F93CF93DF93EB01909117019923EE
:104C700031F0CB01DF91CF911F910C94272688232F
:104C800079F0CB010E94E525182F682FCE010E94F4
:104C90009125BE01812FDF91CF911F910C94E00FE0
:104CA000CB010E94BD25182FF4CF682F80916F0093
:104CB000909170000C942628682F80916F0090913D
:104CC00070000C94282880916F00909170000C94D3
:104CD0002A288091A30185958595859508958091D1
:104CE000A301877008959091A301977081E009F462
:104CF00080E008958091AF0108959091AF01892BD4
:104D00008093AF01089580959091AF01982390937F
:104D1000AF0108951092AF0108959091AE01892BD3
:104D20008093AE01089580959091AE019823909361
:104D3000AE0108951092AE0108959091AD01892BB6
:104D40008093AD01089580959091AD019823909343
:104D5000AD0108951092AD0108958091A4010895C8
:104D600008950C94B0269091A401981721F0809397
:104D7000A4010C94B12608958091A401882329F000
:104D80001092A40180E00C94B1260895E0916F0088
:104D9000F09170008091AF018083E0916F00F091FD
:104DA000700080819091AE01892B8083E0916F002B
:104DB000F091700080819091AD01892B808390915A
:104DC000A401992381F0E0916F00F091700080813F
:104DD000892B808380916F00909170000E94ED2755
:104DE00081110E94BC2680916F00909170000C94FC
:104DF000931B08950C94F92698E0899F9001112443
:104E0000622B6093A3010E94F5248091A3018595F4
:104E1000859585950C94FA261092A30180E00C9458
:104E2000FA269091A301809589238093A301282FCE
:104E3000277071F4282F082E000C330B92171306DD
:104E400039F08595859585950E9416250C940C273B
:104E50000895829590E09C01220F331F220F331F8B
:104E60002C7C95958795959587958373282B30E0B5
:104E7000C901880F991F8A7A359527952575822B48
:104E80000895CF93DF93D92F0E942927C82F8D2F04
:104E90000E9429279C2FDF91CF91089590E080E018
:104EA0000E94703421E08C3E9E4F09F020E0822F5A
:104EB000089582E090E00C94623483E090E00C94DA
:104EC0006234CF9384E090E00E946234C82F81E284
:104ED00090E00E946234982F8C2FCF910895CF9349
:104EE000C92F682F84E090E00E9476346C2F81E215
:104EF00090E0CF910C947634AB01BC018FE090E050
:104F00000C948734AB01BC0183E190E00C948734AE
:104F100060E070E0CB010C94822760E070E0CB0190
:104F20000E947C270C9488276CEE7EEF90E080E056
:104F30000E94933460E082E090E00E94763460E06A
:104F400083E090E00E94763410929F011092A001BD
:104F50001092A1011092A20160E084E090E00E9412
:104F6000763460E081E290E00E94763460E085E093
:104F700090E00E94763460E086E090E00E94763413
:104F80006FEF87E090E00E94763440E050E0BA0195
:104F900088E090E00E94873460E08DE090E00E941D
:104FA000763440E050E0BA0188E190E00E94873416
:104FB00060E087E190E00E94763440E050E0BA0182
:104FC0008CE190E00E94873460E080E290E00E94F3
:104FD00076340C948D270C9494279C012E5F3F4FC0
:104FE000AC01485F5F4F80E02417350709F408954E
:104FF000F90191919F019923B9F38F5FF5CF9C013E
:10500000FC0132969FEF80E04191461751F09F3F9F
:1050100019F4411101C0982F8F5F8630A9F79F3F87
:1050200009F40895290F311D97FD3A95F90162831E
:105030000895FC01329608962191261303C0DF01E2
:1050400011971C92E817F907B9F708950C94FF27F8
:105050000C941928029626E0FC0111922A95E9F792
:1050600008958BE083BF8BEB8CBF82E089BF0895EE
:105070002FB7F89480918D0290918E02A0918F02AB
:10508000B09190022FBF08952FB7F89460918D02D0
:1050900070918E0280918F02909190022FBF08959F
:1050A000CF92DF92EF92FF920F931F932FB7F89456
:1050B00040918D0250918E0260918F02709190020A
:1050C0002FBF6A017B01EE24FF248C0130E020E039
:1050D000C016D106E206F30650F0481B590BCA0170
:1050E0001F910F91FF90EF90DF90CF900895415066
:1050F0005109F3CF78941F921FB61F9211248F93FA
:105100009F93AF93BF9380918D0290918E02A09157
:105110008F02B09190020196A11DB11D80938D0266
:1051200090938E02A0938F02B0939002BF91AF91A3
:105130009F918F911F901FBE1F90189560E081E096
:1051400090E00E94993487E090EBDC018093D602D6
:105150009093D702A093D802B093D90288E19CE043
:105160000FB6F894A89581BD0FBE91BDFFCF0E94E8
:105170004E27811102C00E94EB270E94592780937D
:10518000B0010E94612790939202809391020E9445
:105190005D27682F70E090E080E00C94932480916C
:1051A000B40180FF12C06091740085E0689FB00177
:1051B0001124759567957595679560387105A8F503
:1051C00061157105A1F1862F089581FF09C06091D5
:1051D000740085E0689FB001112475956795EDCF47
:1051E0006091740082FD0AC08091B3018823D1F0E0
:1051F0009091730060917400891728F085E0689F92
:10520000B0011124DACF869FB001112485E0869F7A
:105210009001879F300D1124692F70E0C9010E9411
:105220003B34CBCF65E070E0CECF8FE7089581E0CF
:1052300008958091B40180FF0CC06091720070E00D
:1052400075956795759567956115710549F1862F77
:10525000089581FF06C06091720070E075956795B2
:10526000F3CF6091720082FD0BC09091B30199233E
:10527000A1F06091710080917200961738F0682F4C
:1052800070E06038710500F38FE70895899FC001D1
:10529000112470E00E943B34F4CF61E070E0D7CF7E
:1052A00081E00895803F31F40E94CF28819580935A
:1052B000B7010895813F19F40E94CF28F8CF823FAB
:1052C00031F40E94CF2881958093B6010895833FE1
:1052D00019F40E94CF28F8CF893F29F40E94192998
:1052E0008093B80108958A3F21F40E94192981957D
:1052F000F7CF8B3F31F40E94192981958093B90132
:1053000008958C3F19F40E941929F8CF843F31F495
:105310008091B50181608093B5010895853F21F4A6
:105320008091B5018260F7CF863F21F48091B5016D
:105330008460F1CF873F21F48091B5018860EBCF85
:10534000883F21F48091B5018061E5CF8D3F31F434
:105350008091B40181608093B40108958E3F21F45F
:105360008091B4018260F7CF8F3FB9F78091B4018B
:105370008460F1CF9091B601803F41F48091B701F4
:1053800087FD1092B701992371F00895813F29F4A8
:105390008091B7011816ACF3F6CF823F81F497FFE6
:1053A000F2CF1092B6018091B7019091B801892B8C
:1053B0009091B901892B49F71092B3010895833F69
:1053C00019F4191674F3DFCF893F39F48091B801CD
:1053D0001816CCF61092B801D6CF8A3F29F48091E6
:1053E000B80187FFD0CFF6CF8B3F39F48091B90158
:1053F00087FFC9CF1092B901C6CF8C3F29F48091A5
:10540000B9011816BCF3BFCF843F31F48091B501C8
:105410008E7F8093B501B7CF853F21F48091B50190
:105420008D7FF7CF863F21F48091B5018B7FF1CF3F
:10543000873F21F48091B501877FEBCF883F21F42E
:105440008091B5018F7EE5CF8D3F31F48091B4011D
:105450008E7F8093B40197CF8E3F21F48091B40169
:105460008D7FF7CF8F3F09F08ECF8091B4018B7F76
:10547000F0CF8091B00183FF7EC08EEB98E00E9458
:10548000D1098091B5011F928F9389EB98E09F938A
:105490008F930E946A0A87EB98E00E94D10980915D
:1054A000B601282F082E000C330B3F938F9384EB0B
:1054B00098E09F938F930E946A0A82EB98E00E9483
:1054C000D1098091B701282F082E000C330B3F9390
:1054D0008F938FEA98E09F938F930E946A0A8DEAD8
:1054E00098E00E94D1098091B801282F082E000C65
:1054F000330B3F938F938AEA98E09F938F930E9498
:105500006A0A88EA98E00E94D1098091B901282F9F
:10551000082E000C330B3F938F9385EA98E09F93FE
:105520008F930E946A0A82EA98E00E94D1098091D2
:10553000B3011F928F938FE998E09F938F930E94FE
:105540006A0A8DE998E00E94D1098091B4011F9206
:105550008F938AE998E09F938F930E946A0A87E964
:1055600098E00E94D1098DB79EB74C960FB6F8947B
:105570009EBF0FBE8DBF85EB91E00E94DF1B0E9496
:1055800038289093B2018093B10108951F93CF936F
:10559000DF938091B1019091B2010E945028AC013B
:1055A0009091B3012091750030E0911106C02091D7
:1055B00076008AE0289F900111244217530778F063
:1055C0002091B601C091B701D091B8011091B901F5
:1055D000211109C08C2F8D2B812B09F06AC0DF911E
:1055E000CF911F9108959F3F19F09F5F9093B30152
:1055F000121624F40E94CF288093B6018091B60140
:1056000087FF05C00E94CF2881958093B6011C16A4
:1056100024F40E94CF288093B7018091B70187FFBF
:1056200005C00E94CF2881958093B7013091B601C3
:105630003323A1F02091B701222381F045EB3403FD
:10564000C0011124992369F19093B60145EB24031D
:1056500090011124332349F13093B7011D1624F42E
:105660000E9419298093B8018091B80187FF05C075
:105670000E94192981958093B801111624F40E9483
:1056800019298093B9018091B90187FF05C00E9453
:10569000192981958093B901DF91CF911F910C94C5
:1056A000392A81E08093B601D1CF81E08093B701A0
:1056B000D5CF9F3F09F099CFAACF85E0E5EBF1E088
:1056C000DF011D928A95E9F71092B3011092B4019F
:1056D000089581EE9AE00E94D1091F9281E08F9394
:1056E0001F9285E08F9383E99AE09F938F930E94A6
:1056F0006A0A0F900F900F900F900F900F900895DF
:10570000833009F445C028F4813061F0823049F1DA
:105710000895853009F46AC008F451C0863009F450
:105720007CC0089580917600482F460F5527551F5D
:105730004F3F510594F4680F609376008091760096
:105740001F928F938CEC99E09F938F930E946A0A2B
:105750000F900F900F900F9008958FEF8093760029
:10576000EDCF80917500482F460F5527551F4F3FAD
:10577000510554F4680F60937500809175001F9275
:105780008F938AEB99E0E0CF8FEF80937500F5CF90
:1057900080917400482F460F5527551F4F3F5105E4
:1057A00054F4680F60937400809174001F928F937B
:1057B00087EA99E0C9CF8FEF80937400F5CF80918D
:1057C0007300482F460F5527551F4F3F510554F47E
:1057D000680F60937300809173001F928F9382E92A
:1057E00099E0B2CF8FEF80937300F5CF8091720074
:1057F000482F460F5527551F4F3F510554F4680F4A
:1058000060937200809172001F928F9389E799E0F4
:105810009BCF8FEF80937200F5CF80917100482F5E
:10582000460F5527551F4F3F510554F4680F60939D
:105830007100809171001F928F938EE599E084CF63
:105840008FEF80937100F5CF8330C9F128F4813058
:1058500061F0823019F10895853009F452C008F4DE
:105860003FC0863009F45EC00895809176006817C5
:1058700090F4861B80937600809176001F928F9320
:105880008FE499E09F938F930E946A0A0F900F9084
:105890000F900F90089510927600EECF80917500D2
:1058A000681750F4861B80937500809175001F92D5
:1058B0008F938DE399E0E6CF10927500F6CF80913B
:1058C0007400681750F4861B8093740080917400F4
:1058D0001F928F938AE299E0D5CF10927400F6CF91
:1058E00080917300681750F4861B80937300809139
:1058F00073001F928F9385E199E0C4CF10927300DB
:10590000F6CF80917200681750F4861B8093720066
:10591000809172001F928F938CEF98E0B3CF10921A
:105920007200F6CF80917100681750F4861B809347
:105930007100809171001F928F9381EE98E0A2CF49
:1059400010927100F6CFCF93C82F1F928F9386EEDF
:105950009BE09F938F930E946A0A61E070E080E071
:1059600090E004C0660F771F881F991FCA95D2F771
:105970000E9493240F900F900F900F90CF910C9452
:10598000D120CF93DF938B3109F409C208F0A0C175
:105990008B3009F4C7C108F06AC1863009F4D5C15B
:1059A00048F4853009F4A2C180E690E10E94D10953
:1059B00080E0DBC1873009F4DBC18830A9F78FEFC5
:1059C00090E10E94D10980E590E10E94D1090E94F6
:1059D0005D271F928F938DE490E19F938F930E9498
:1059E0006A0A8BE490E10E94D1090E945927C82FCE
:1059F00088E390E10E94D1091F92CF9383E390E165
:105A00009F938F930E946A0A81E390E10E94D109DB
:105A100087E290E10E94D1098C2F81701F928F93B1
:105A200084E290E19F938F930E946A0A82E290E160
:105A30000E94D10988E190E10E94D109C1FB882729
:105A400080F91F928F9385E190E19F938F930E943D
:105A50006A0A83E190E10E94D10987E090E10E9407
:105A6000D109C2FB882780F91F928F9384E090E1CF
:105A70009F938F930E946A0A82E090E10E94D1096D
:105A800089EF9FE00E94D109C3FBCC27C0F91F9288
:105A9000CF9386EF9FE09F938F930E946A0A84EFD3
:105AA0009FE00E94D1090E946127EC0180EE9FE0F7
:105AB0000E94D109DF93CF938BED9FE09F938F934B
:105AC0000E946A0A89ED9FE00E94D10980EC9FE064
:105AD0000E94D1098C2F81701F928F938DEB9FE0D4
